{
  "contractName": "Create2Impl",
  "abi": [
    {
      "inputs": [
        {
          "internalType": "bytes32",
          "name": "salt",
          "type": "bytes32"
        },
        {
          "internalType": "bytes",
          "name": "code",
          "type": "bytes"
        }
      ],
      "name": "deploy",
      "outputs": [],
      "stateMutability": "nonpayable",
      "type": "function"
    },
    {
      "inputs": [
        {
          "internalType": "bytes32",
          "name": "salt",
          "type": "bytes32"
        }
      ],
      "name": "deployERC20",
      "outputs": [],
      "stateMutability": "nonpayable",
      "type": "function"
    },
    {
      "inputs": [
        {
          "internalType": "bytes32",
          "name": "salt",
          "type": "bytes32"
        },
        {
          "internalType": "bytes32",
          "name": "codeHash",
          "type": "bytes32"
        },
        {
          "internalType": "address",
          "name": "deployer",
          "type": "address"
        }
      ],
      "name": "computeAddress",
      "outputs": [
        {
          "internalType": "address",
          "name": "",
          "type": "address"
        }
      ],
      "stateMutability": "pure",
      "type": "function"
    },
    {
      "inputs": [
        {
          "internalType": "bytes32",
          "name": "salt",
          "type": "bytes32"
        },
        {
          "internalType": "bytes",
          "name": "code",
          "type": "bytes"
        },
        {
          "internalType": "address",
          "name": "deployer",
          "type": "address"
        }
      ],
      "name": "computeAddress",
      "outputs": [
        {
          "internalType": "address",
          "name": "",
          "type": "address"
        }
      ],
      "stateMutability": "pure",
      "type": "function"
    },
    {
      "inputs": [
        {
          "internalType": "bytes32",
          "name": "salt",
          "type": "bytes32"
        },
        {
          "internalType": "bytes",
          "name": "code",
          "type": "bytes"
        }
      ],
      "name": "computeAddress",
      "outputs": [
        {
          "internalType": "address",
          "name": "",
          "type": "address"
        }
      ],
      "stateMutability": "view",
      "type": "function"
    }
  ],
  "bytecode": "0x608060405234801561001057600080fd5b506114ed806100206000396000f3fe608060405234801561001057600080fd5b50600436106100575760003560e01c8063780653061461005c578063a3180978146100f4578063ca9ffe9414610219578063cdcb760a1461031e578063f48fdcd3146103e3575b600080fd5b6100b26004803603606081101561007257600080fd5b810190808035906020019092919080359060200190929190803573ffffffffffffffffffffffffffffffffffffffff169060200190929190505050610411565b604051808273ffffffffffffffffffffffffffffffffffffffff1673ffffffffffffffffffffffffffffffffffffffff16815260200191505060405180910390f35b6101d76004803603606081101561010a57600080fd5b81019080803590602001909291908035906020019064010000000081111561013157600080fd5b82018360208201111561014357600080fd5b8035906020019184600183028401116401000000008311171561016557600080fd5b91908080601f016020809104026020016040519081016040528093929190818152602001838380828437600081840152601f19601f820116905080830192505050505050509192919290803573ffffffffffffffffffffffffffffffffffffffff169060200190929190505050610427565b604051808273ffffffffffffffffffffffffffffffffffffffff1673ffffffffffffffffffffffffffffffffffffffff16815260200191505060405180910390f35b6102dc6004803603604081101561022f57600080fd5b81019080803590602001909291908035906020019064010000000081111561025657600080fd5b82018360208201111561026857600080fd5b8035906020019184600183028401116401000000008311171561028a57600080fd5b91908080601f016020809104026020016040519081016040528093929190818152602001838380828437600081840152601f19601f82011690508083019250505050505050919291929050505061043d565b604051808273ffffffffffffffffffffffffffffffffffffffff1673ffffffffffffffffffffffffffffffffffffffff16815260200191505060405180910390f35b6103e16004803603604081101561033457600080fd5b81019080803590602001909291908035906020019064010000000081111561035b57600080fd5b82018360208201111561036d57600080fd5b8035906020019184600183028401116401000000008311171561038f57600080fd5b91908080601f016020809104026020016040519081016040528093929190818152602001838380828437600081840152601f19601f820116905080830192505050505050509192919290505050610451565b005b61040f600480360360208110156103f957600080fd5b8101908080359060200190929190505050610460565b005b600061041e848484610491565b90509392505050565b600061043484848461055e565b90509392505050565b6000610449838361057b565b905092915050565b61045b8282610590565b505050565b61048d81604051806020016104749061064c565b6020820181038252601f19601f82011660405250610590565b5050565b60008060ff60f81b83868660405160200180857effffffffffffffffffffffffffffffffffffffffffffffffffffffffffffff19167effffffffffffffffffffffffffffffffffffffffffffffffffffffffffffff191681526001018473ffffffffffffffffffffffffffffffffffffffff1673ffffffffffffffffffffffffffffffffffffffff1660601b8152601401838152602001828152602001945050505050604051602081830303815290604052805190602001209050606081901b60601c9150509392505050565b600061057284848051906020012084610491565b90509392505050565b600061058883833061055e565b905092915050565b600080838351602085016000f59050600073ffffffffffffffffffffffffffffffffffffffff168173ffffffffffffffffffffffffffffffffffffffff161415610642576040517f08c379a00000000000000000000000000000000000000000000000000000000081526004018080602001828103825260198152602001807f437265617465323a204661696c6564206f6e206465706c6f790000000000000081525060200191505060405180910390fd5b8091505092915050565b610e5e8061065a8339019056fe6080604052610e4b806100136000396000f3fe608060405234801561001057600080fd5b50600436106100885760003560e01c806370a082311161005b57806370a08231146101fd578063a457c2d714610255578063a9059cbb146102bb578063dd62ed3e1461032157610088565b8063095ea7b31461008d57806318160ddd146100f357806323b872dd146101115780633950935114610197575b600080fd5b6100d9600480360360408110156100a357600080fd5b81019080803573ffffffffffffffffffffffffffffffffffffffff16906020019092919080359060200190929190505050610399565b604051808215151515815260200191505060405180910390f35b6100fb6103b7565b6040518082815260200191505060405180910390f35b61017d6004803603606081101561012757600080fd5b81019080803573ffffffffffffffffffffffffffffffffffffffff169060200190929190803573ffffffffffffffffffffffffffffffffffffffff169060200190929190803590602001909291905050506103c1565b604051808215151515815260200191505060405180910390f35b6101e3600480360360408110156101ad57600080fd5b81019080803573ffffffffffffffffffffffffffffffffffffffff1690602001909291908035906020019092919050505061049a565b604051808215151515815260200191505060405180910390f35b61023f6004803603602081101561021357600080fd5b81019080803573ffffffffffffffffffffffffffffffffffffffff16906020019092919050505061054d565b6040518082815260200191505060405180910390f35b6102a16004803603604081101561026b57600080fd5b81019080803573ffffffffffffffffffffffffffffffffffffffff16906020019092919080359060200190929190505050610595565b604051808215151515815260200191505060405180910390f35b610307600480360360408110156102d157600080fd5b81019080803573ffffffffffffffffffffffffffffffffffffffff16906020019092919080359060200190929190505050610662565b604051808215151515815260200191505060405180910390f35b6103836004803603604081101561033757600080fd5b81019080803573ffffffffffffffffffffffffffffffffffffffff169060200190929190803573ffffffffffffffffffffffffffffffffffffffff169060200190929190505050610680565b6040518082815260200191505060405180910390f35b60006103ad6103a6610707565b848461070f565b6001905092915050565b6000600254905090565b60006103ce848484610906565b61048f846103da610707565b61048a85604051806060016040528060288152602001610d8060289139600160008b73ffffffffffffffffffffffffffffffffffffffff1673ffffffffffffffffffffffffffffffffffffffff1681526020019081526020016000206000610440610707565b73ffffffffffffffffffffffffffffffffffffffff1673ffffffffffffffffffffffffffffffffffffffff16815260200190815260200160002054610bc79092919063ffffffff16565b61070f565b600190509392505050565b60006105436104a7610707565b8461053e85600160006104b8610707565b73ffffffffffffffffffffffffffffffffffffffff1673ffffffffffffffffffffffffffffffffffffffff16815260200190815260200160002060008973ffffffffffffffffffffffffffffffffffffffff1673ffffffffffffffffffffffffffffffffffffffff16815260200190815260200160002054610c8790919063ffffffff16565b61070f565b6001905092915050565b60008060008373ffffffffffffffffffffffffffffffffffffffff1673ffffffffffffffffffffffffffffffffffffffff168152602001908152602001600020549050919050565b60006106586105a2610707565b8461065385604051806060016040528060258152602001610df160259139600160006105cc610707565b73ffffffffffffffffffffffffffffffffffffffff1673ffffffffffffffffffffffffffffffffffffffff16815260200190815260200160002060008a73ffffffffffffffffffffffffffffffffffffffff1673ffffffffffffffffffffffffffffffffffffffff16815260200190815260200160002054610bc79092919063ffffffff16565b61070f565b6001905092915050565b600061067661066f610707565b8484610906565b6001905092915050565b6000600160008473ffffffffffffffffffffffffffffffffffffffff1673ffffffffffffffffffffffffffffffffffffffff16815260200190815260200160002060008373ffffffffffffffffffffffffffffffffffffffff1673ffffffffffffffffffffffffffffffffffffffff16815260200190815260200160002054905092915050565b600033905090565b600073ffffffffffffffffffffffffffffffffffffffff168373ffffffffffffffffffffffffffffffffffffffff161415610795576040517f08c379a0000000000000000000000000000000000000000000000000000000008152600401808060200182810382526024815260200180610dcd6024913960400191505060405180910390fd5b600073ffffffffffffffffffffffffffffffffffffffff168273ffffffffffffffffffffffffffffffffffffffff16141561081b576040517f08c379a0000000000000000000000000000000000000000000000000000000008152600401808060200182810382526022815260200180610d386022913960400191505060405180910390fd5b80600160008573ffffffffffffffffffffffffffffffffffffffff1673ffffffffffffffffffffffffffffffffffffffff16815260200190815260200160002060008473ffffffffffffffffffffffffffffffffffffffff1673ffffffffffffffffffffffffffffffffffffffff168152602001908152602001600020819055508173ffffffffffffffffffffffffffffffffffffffff168373ffffffffffffffffffffffffffffffffffffffff167f8c5be1e5ebec7d5bd14f71427d1e84f3dd0314c0f7b2291e5b200ac8c7c3b925836040518082815260200191505060405180910390a3505050565b600073ffffffffffffffffffffffffffffffffffffffff168373ffffffffffffffffffffffffffffffffffffffff16141561098c576040517f08c379a0000000000000000000000000000000000000000000000000000000008152600401808060200182810382526025815260200180610da86025913960400191505060405180910390fd5b600073ffffffffffffffffffffffffffffffffffffffff168273ffffffffffffffffffffffffffffffffffffffff161415610a12576040517f08c379a0000000000000000000000000000000000000000000000000000000008152600401808060200182810382526023815260200180610d156023913960400191505060405180910390fd5b610a1d838383610d0f565b610a8881604051806060016040528060268152602001610d5a602691396000808773ffffffffffffffffffffffffffffffffffffffff1673ffffffffffffffffffffffffffffffffffffffff16815260200190815260200160002054610bc79092919063ffffffff16565b6000808573ffffffffffffffffffffffffffffffffffffffff1673ffffffffffffffffffffffffffffffffffffffff16815260200190815260200160002081905550610b1b816000808573ffffffffffffffffffffffffffffffffffffffff1673ffffffffffffffffffffffffffffffffffffffff16815260200190815260200160002054610c8790919063ffffffff16565b6000808473ffffffffffffffffffffffffffffffffffffffff1673ffffffffffffffffffffffffffffffffffffffff168152602001908152602001600020819055508173ffffffffffffffffffffffffffffffffffffffff168373ffffffffffffffffffffffffffffffffffffffff167fddf252ad1be2c89b69c2b068fc378daa952ba7f163c4a11628f55a4df523b3ef836040518082815260200191505060405180910390a3505050565b6000838311158290610c74576040517f08c379a00000000000000000000000000000000000000000000000000000000081526004018080602001828103825283818151815260200191508051906020019080838360005b83811015610c39578082015181840152602081019050610c1e565b50505050905090810190601f168015610c665780820380516001836020036101000a031916815260200191505b509250505060405180910390fd5b5060008385039050809150509392505050565b600080828401905083811015610d05576040517f08c379a000000000000000000000000000000000000000000000000000000000815260040180806020018281038252601b8152602001807f536166654d6174683a206164646974696f6e206f766572666c6f77000000000081525060200191505060405180910390fd5b8091505092915050565b50505056fe45524332303a207472616e7366657220746f20746865207a65726f206164647265737345524332303a20617070726f766520746f20746865207a65726f206164647265737345524332303a207472616e7366657220616d6f756e7420657863656564732062616c616e636545524332303a207472616e7366657220616d6f756e74206578636565647320616c6c6f77616e636545524332303a207472616e736665722066726f6d20746865207a65726f206164647265737345524332303a20617070726f76652066726f6d20746865207a65726f206164647265737345524332303a2064656372656173656420616c6c6f77616e63652062656c6f77207a65726fa2646970667358221220491f95c1121a36b8d21577679f15330f6896ffb68bce541f9f5c23e7ff16524164736f6c63430006000033a2646970667358221220b295ba58b188c573d5c9814a0d9a5fbc238e78b2b62b2bfd293a2cab179bab2d64736f6c63430006000033",
  "source": "pragma solidity ^0.6.0;\n\nimport \"../utils/Create2.sol\";\nimport \"../token/ERC20/ERC20.sol\";\n\ncontract Create2Impl {\n    function deploy(bytes32 salt, bytes memory code) public {\n        Create2.deploy(salt, code);\n    }\n\n    function deployERC20(bytes32 salt) public {\n        // solhint-disable-next-line indent\n        Create2.deploy(salt, type(ERC20).creationCode);\n    }\n\n    function computeAddress(bytes32 salt, bytes memory code) public view returns (address) {\n        return Create2.computeAddress(salt, code);\n    }\n\n    function computeAddress(bytes32 salt, bytes memory code, address deployer) public pure returns (address) {\n        return Create2.computeAddress(salt, code, deployer);\n    }\n\n    function computeAddress(bytes32 salt, bytes32 codeHash, address deployer) public pure returns (address) {\n        return Create2.computeAddress(salt, codeHash, deployer);\n    }\n}\n",
  "sourcePath": "/Users/Tommaso/Desktop/FakeExchange/contracts/openzeppelin/contracts/mocks/Create2Impl.sol",
  "compiler": {
    "name": "solc",
    "version": "0.6.0+commit.26b70077.Emscripten.clang"
  },
  "schemaVersion": "3.0.23",
  "updatedAt": "2020-02-22T23:31:12.518Z",
  "devdoc": {
    "methods": {}
  },
  "userdoc": {
    "methods": {}
  }
}