{
  "contractName": "ECDSAMock",
  "abi": [
    {
      "inputs": [
        {
          "internalType": "bytes32",
          "name": "hash",
          "type": "bytes32"
        },
        {
          "internalType": "bytes",
          "name": "signature",
          "type": "bytes"
        }
      ],
      "name": "recover",
      "outputs": [
        {
          "internalType": "address",
          "name": "",
          "type": "address"
        }
      ],
      "stateMutability": "pure",
      "type": "function"
    },
    {
      "inputs": [
        {
          "internalType": "bytes32",
          "name": "hash",
          "type": "bytes32"
        }
      ],
      "name": "toEthSignedMessageHash",
      "outputs": [
        {
          "internalType": "bytes32",
          "name": "",
          "type": "bytes32"
        }
      ],
      "stateMutability": "pure",
      "type": "function"
    }
  ],
  "bytecode": "0x608060405234801561001057600080fd5b50610343806100206000396000f3fe608060405234801561001057600080fd5b50600436106100365760003560e01c806319045a251461003b578063918a15cf14610140575b600080fd5b6100fe6004803603604081101561005157600080fd5b81019080803590602001909291908035906020019064010000000081111561007857600080fd5b82018360208201111561008a57600080fd5b803590602001918460018302840111640100000000831117156100ac57600080fd5b91908080601f016020809104026020016040519081016040528093929190818152602001838380828437600081840152601f19601f820116905080830192505050505050509192919290505050610182565b604051808273ffffffffffffffffffffffffffffffffffffffff1673ffffffffffffffffffffffffffffffffffffffff16815260200191505060405180910390f35b61016c6004803603602081101561015657600080fd5b810190808035906020019092919050505061019f565b6040518082815260200191505060405180910390f35b600061019782846101b190919063ffffffff16565b905092915050565b60006101aa826102b5565b9050919050565b600060418251146101c557600090506102af565b60008060006020850151925060408501519150606085015160001a90507f7fffffffffffffffffffffffffffffff5d576e7357a4501ddfe92f46681b20a08260001c111561021957600093505050506102af565b601b8160ff16141580156102315750601c8160ff1614155b1561024257600093505050506102af565b60018682858560405160008152602001604052604051808581526020018460ff1660ff1681526020018381526020018281526020019450505050506020604051602081039080840390855afa15801561029f573d6000803e3d6000fd5b5050506020604051035193505050505b92915050565b60008160405160200180807f19457468657265756d205369676e6564204d6573736167653a0a333200000000815250601c0182815260200191505060405160208183030381529060405280519060200120905091905056fea264697066735822122001a6e68c8710b208c346fd8055aaba588463ecd608c7b8a92ddc8aaf10bfcc2d64736f6c63430006000033",
  "source": "pragma solidity ^0.6.0;\n\nimport \"../cryptography/ECDSA.sol\";\n\ncontract ECDSAMock {\n    using ECDSA for bytes32;\n\n    function recover(bytes32 hash, bytes memory signature) public pure returns (address) {\n        return hash.recover(signature);\n    }\n\n    function toEthSignedMessageHash(bytes32 hash) public pure returns (bytes32) {\n        return hash.toEthSignedMessageHash();\n    }\n}\n",
  "sourcePath": "/Users/Tommaso/Desktop/FakeExchange/contracts/openzeppelin/contracts/mocks/ECDSAMock.sol",
  "compiler": {
    "name": "solc",
    "version": "0.6.0+commit.26b70077.Emscripten.clang"
  },
  "schemaVersion": "3.0.23",
  "updatedAt": "2020-02-22T23:31:12.520Z",
  "devdoc": {
    "methods": {}
  },
  "userdoc": {
    "methods": {}
  }
}