{
  "contractName": "FakeExchange",
  "abi": [
    {
      "inputs": [],
      "stateMutability": "nonpayable",
      "type": "constructor"
    },
    {
      "anonymous": false,
      "inputs": [
        {
          "indexed": false,
          "internalType": "uint256",
          "name": "amount",
          "type": "uint256"
        },
        {
          "indexed": false,
          "internalType": "address",
          "name": "from",
          "type": "address"
        }
      ],
      "name": "Deposit",
      "type": "event"
    },
    {
      "anonymous": false,
      "inputs": [
        {
          "indexed": false,
          "internalType": "string",
          "name": "feeType",
          "type": "string"
        },
        {
          "indexed": false,
          "internalType": "uint256",
          "name": "newValue",
          "type": "uint256"
        }
      ],
      "name": "FeeChanged",
      "type": "event"
    },
    {
      "anonymous": false,
      "inputs": [
        {
          "indexed": true,
          "internalType": "address",
          "name": "previousOwner",
          "type": "address"
        },
        {
          "indexed": true,
          "internalType": "address",
          "name": "newOwner",
          "type": "address"
        }
      ],
      "name": "OwnershipTransferred",
      "type": "event"
    },
    {
      "anonymous": false,
      "inputs": [
        {
          "indexed": false,
          "internalType": "string",
          "name": "tokenID",
          "type": "string"
        },
        {
          "indexed": false,
          "internalType": "string",
          "name": "addressType",
          "type": "string"
        },
        {
          "indexed": false,
          "internalType": "address",
          "name": "newAddress",
          "type": "address"
        }
      ],
      "name": "TokenAddressChanged",
      "type": "event"
    },
    {
      "anonymous": false,
      "inputs": [
        {
          "indexed": false,
          "internalType": "address",
          "name": "seller",
          "type": "address"
        },
        {
          "indexed": false,
          "internalType": "uint256",
          "name": "qty",
          "type": "uint256"
        },
        {
          "indexed": false,
          "internalType": "uint256",
          "name": "price",
          "type": "uint256"
        }
      ],
      "name": "TokenBought",
      "type": "event"
    },
    {
      "anonymous": false,
      "inputs": [
        {
          "indexed": false,
          "internalType": "string",
          "name": "tokenID",
          "type": "string"
        }
      ],
      "name": "TokenDeleted",
      "type": "event"
    },
    {
      "anonymous": false,
      "inputs": [
        {
          "indexed": false,
          "internalType": "address",
          "name": "customer",
          "type": "address"
        },
        {
          "indexed": false,
          "internalType": "uint256",
          "name": "qty",
          "type": "uint256"
        },
        {
          "indexed": false,
          "internalType": "uint256",
          "name": "price",
          "type": "uint256"
        }
      ],
      "name": "TokenSold",
      "type": "event"
    },
    {
      "anonymous": false,
      "inputs": [
        {
          "indexed": false,
          "internalType": "uint256",
          "name": "amount",
          "type": "uint256"
        },
        {
          "indexed": false,
          "internalType": "address",
          "name": "from",
          "type": "address"
        }
      ],
      "name": "Withdrawal",
      "type": "event"
    },
    {
      "stateMutability": "payable",
      "type": "fallback",
      "payable": true
    },
    {
      "inputs": [],
      "name": "isOwner",
      "outputs": [
        {
          "internalType": "bool",
          "name": "",
          "type": "bool"
        }
      ],
      "stateMutability": "view",
      "type": "function",
      "constant": true
    },
    {
      "inputs": [],
      "name": "owner",
      "outputs": [
        {
          "internalType": "address",
          "name": "",
          "type": "address"
        }
      ],
      "stateMutability": "view",
      "type": "function",
      "constant": true
    },
    {
      "inputs": [],
      "name": "renounceOwnership",
      "outputs": [],
      "stateMutability": "nonpayable",
      "type": "function"
    },
    {
      "inputs": [
        {
          "internalType": "address",
          "name": "newOwner",
          "type": "address"
        }
      ],
      "name": "transferOwnership",
      "outputs": [],
      "stateMutability": "nonpayable",
      "type": "function"
    },
    {
      "stateMutability": "payable",
      "type": "receive",
      "payable": true
    },
    {
      "inputs": [
        {
          "internalType": "string",
          "name": "id",
          "type": "string"
        },
        {
          "internalType": "address",
          "name": "tokenAddr",
          "type": "address"
        },
        {
          "internalType": "address",
          "name": "bankAddr",
          "type": "address"
        },
        {
          "internalType": "address payable",
          "name": "payAddr",
          "type": "address"
        }
      ],
      "name": "addToken",
      "outputs": [],
      "stateMutability": "nonpayable",
      "type": "function"
    },
    {
      "inputs": [
        {
          "internalType": "string",
          "name": "id",
          "type": "string"
        }
      ],
      "name": "removeToken",
      "outputs": [],
      "stateMutability": "nonpayable",
      "type": "function"
    },
    {
      "inputs": [
        {
          "internalType": "string",
          "name": "id",
          "type": "string"
        },
        {
          "internalType": "address",
          "name": "bankAddr",
          "type": "address"
        }
      ],
      "name": "setBankAddr",
      "outputs": [],
      "stateMutability": "nonpayable",
      "type": "function"
    },
    {
      "inputs": [
        {
          "internalType": "string",
          "name": "id",
          "type": "string"
        },
        {
          "internalType": "address payable",
          "name": "payAddr",
          "type": "address"
        }
      ],
      "name": "setPayAddr",
      "outputs": [],
      "stateMutability": "nonpayable",
      "type": "function"
    },
    {
      "inputs": [
        {
          "internalType": "string",
          "name": "id",
          "type": "string"
        }
      ],
      "name": "getPayAddr",
      "outputs": [
        {
          "internalType": "address",
          "name": "",
          "type": "address"
        }
      ],
      "stateMutability": "view",
      "type": "function",
      "constant": true
    },
    {
      "inputs": [
        {
          "internalType": "string",
          "name": "id",
          "type": "string"
        }
      ],
      "name": "getBankAddr",
      "outputs": [
        {
          "internalType": "address",
          "name": "",
          "type": "address"
        }
      ],
      "stateMutability": "view",
      "type": "function",
      "constant": true
    },
    {
      "inputs": [
        {
          "internalType": "string",
          "name": "id",
          "type": "string"
        }
      ],
      "name": "getTokenAddr",
      "outputs": [
        {
          "internalType": "address",
          "name": "",
          "type": "address"
        }
      ],
      "stateMutability": "view",
      "type": "function",
      "constant": true
    },
    {
      "inputs": [
        {
          "internalType": "uint256",
          "name": "newFee",
          "type": "uint256"
        }
      ],
      "name": "setBuyFee",
      "outputs": [],
      "stateMutability": "nonpayable",
      "type": "function"
    },
    {
      "inputs": [
        {
          "internalType": "uint256",
          "name": "newFee",
          "type": "uint256"
        }
      ],
      "name": "setSellFee",
      "outputs": [],
      "stateMutability": "nonpayable",
      "type": "function"
    },
    {
      "inputs": [],
      "name": "getBuyFee",
      "outputs": [
        {
          "internalType": "uint256",
          "name": "",
          "type": "uint256"
        }
      ],
      "stateMutability": "view",
      "type": "function",
      "constant": true
    },
    {
      "inputs": [],
      "name": "getSellFee",
      "outputs": [
        {
          "internalType": "uint256",
          "name": "",
          "type": "uint256"
        }
      ],
      "stateMutability": "view",
      "type": "function",
      "constant": true
    },
    {
      "inputs": [
        {
          "internalType": "string",
          "name": "id",
          "type": "string"
        },
        {
          "internalType": "uint256",
          "name": "qty",
          "type": "uint256"
        }
      ],
      "name": "buy",
      "outputs": [],
      "stateMutability": "payable",
      "type": "function",
      "payable": true
    },
    {
      "inputs": [
        {
          "internalType": "string",
          "name": "id",
          "type": "string"
        },
        {
          "internalType": "uint256",
          "name": "qty",
          "type": "uint256"
        }
      ],
      "name": "sell",
      "outputs": [],
      "stateMutability": "nonpayable",
      "type": "function"
    },
    {
      "inputs": [],
      "name": "balance",
      "outputs": [
        {
          "internalType": "uint256",
          "name": "",
          "type": "uint256"
        }
      ],
      "stateMutability": "view",
      "type": "function",
      "constant": true
    },
    {
      "inputs": [],
      "name": "deposit",
      "outputs": [],
      "stateMutability": "payable",
      "type": "function",
      "payable": true
    },
    {
      "inputs": [
        {
          "internalType": "uint256",
          "name": "amount",
          "type": "uint256"
        }
      ],
      "name": "withdraw",
      "outputs": [],
      "stateMutability": "nonpayable",
      "type": "function"
    }
  ],
  "bytecode": "0x608060405234801561001057600080fd5b5060006100216101b860201b60201c565b9050806000806101000a81548173ffffffffffffffffffffffffffffffffffffffff021916908373ffffffffffffffffffffffffffffffffffffffff1602179055508073ffffffffffffffffffffffffffffffffffffffff16600073ffffffffffffffffffffffffffffffffffffffff167f8be0079c531659141344cd1fd0a4f28419497f9722a3daafe3b4186f6b6457e060405160405180910390a350606460038190555060646002819055507f028fb3547db27a12ea2446a9c9bae9d9ecf97ce6abb8ddaefd2605ea1f97618e6003546040518080602001838152602001828103825260048152602001807f53454c4c000000000000000000000000000000000000000000000000000000008152506020019250505060405180910390a17f028fb3547db27a12ea2446a9c9bae9d9ecf97ce6abb8ddaefd2605ea1f97618e6002546040518080602001838152602001828103825260038152602001807f42555900000000000000000000000000000000000000000000000000000000008152506020019250505060405180910390a16101c0565b600033905090565b612f8380620001d06000396000f3fe6080604052600436106101235760003560e01c80638f32d59b116100a0578063d0e30db011610064578063d0e30db014610852578063ddde391b1461085c578063e62d6b5b14610944578063ebd516d514610a4c578063f2fde38b14610b745761012a565b80638f32d59b146105f35780638f818b9014610622578063993087d41461064d5780639f65632114610755578063b69ef8a8146108275761012a565b80636ff4206f116100e75780636ff4206f1461035a578063715018a6146104625780638b4cee08146104795780638b77c842146104b45780638da5cb5b1461059c5761012a565b80630ca5c5041461012c5780630cc835a3146101f15780631f4559221461022c578063289af0d8146102f45780632e1a7d4d1461031f5761012a565b3661012a57005b005b6101ef6004803603604081101561014257600080fd5b810190808035906020019064010000000081111561015f57600080fd5b82018360208201111561017157600080fd5b8035906020019184600183028401116401000000008311171561019357600080fd5b91908080601f016020809104026020016040519081016040528093929190818152602001838380828437600081840152601f19601f82011690508083019250505050505050919291929080359060200190929190505050610bc5565b005b3480156101fd57600080fd5b5061022a6004803603602081101561021457600080fd5b8101908080359060200190929190505050611176565b005b34801561023857600080fd5b506102f26004803603602081101561024f57600080fd5b810190808035906020019064010000000081111561026c57600080fd5b82018360208201111561027e57600080fd5b803590602001918460018302840111640100000000831117156102a057600080fd5b91908080601f016020809104026020016040519081016040528093929190818152602001838380828437600081840152601f19601f82011690508083019250505050505050919291929050505061126a565b005b34801561030057600080fd5b50610309611408565b6040518082815260200191505060405180910390f35b34801561032b57600080fd5b506103586004803603602081101561034257600080fd5b8101908080359060200190929190505050611412565b005b34801561036657600080fd5b506104206004803603602081101561037d57600080fd5b810190808035906020019064010000000081111561039a57600080fd5b8201836020820111156103ac57600080fd5b803590602001918460018302840111640100000000831117156103ce57600080fd5b91908080601f016020809104026020016040519081016040528093929190818152602001838380828437600081840152601f19601f820116905080830192505050505050509192919290505050611565565b604051808273ffffffffffffffffffffffffffffffffffffffff1673ffffffffffffffffffffffffffffffffffffffff16815260200191505060405180910390f35b34801561046e57600080fd5b506104776116ee565b005b34801561048557600080fd5b506104b26004803603602081101561049c57600080fd5b8101908080359060200190929190505050611827565b005b3480156104c057600080fd5b5061059a600480360360408110156104d757600080fd5b81019080803590602001906401000000008111156104f457600080fd5b82018360208201111561050657600080fd5b8035906020019184600183028401116401000000008311171561052857600080fd5b91908080601f016020809104026020016040519081016040528093929190818152602001838380828437600081840152601f19601f820116905080830192505050505050509192919290803573ffffffffffffffffffffffffffffffffffffffff16906020019092919050505061191b565b005b3480156105a857600080fd5b506105b1611c40565b604051808273ffffffffffffffffffffffffffffffffffffffff1673ffffffffffffffffffffffffffffffffffffffff16815260200191505060405180910390f35b3480156105ff57600080fd5b50610608611c69565b604051808215151515815260200191505060405180910390f35b34801561062e57600080fd5b50610637611cc7565b6040518082815260200191505060405180910390f35b34801561065957600080fd5b506107136004803603602081101561067057600080fd5b810190808035906020019064010000000081111561068d57600080fd5b82018360208201111561069f57600080fd5b803590602001918460018302840111640100000000831117156106c157600080fd5b91908080601f016020809104026020016040519081016040528093929190818152602001838380828437600081840152601f19601f820116905080830192505050505050509192919290505050611cd1565b604051808273ffffffffffffffffffffffffffffffffffffffff1673ffffffffffffffffffffffffffffffffffffffff16815260200191505060405180910390f35b34801561076157600080fd5b506108256004803603604081101561077857600080fd5b810190808035906020019064010000000081111561079557600080fd5b8201836020820111156107a757600080fd5b803590602001918460018302840111640100000000831117156107c957600080fd5b91908080601f016020809104026020016040519081016040528093929190818152602001838380828437600081840152601f19601f82011690508083019250505050505050919291929080359060200190929190505050611ed4565b005b34801561083357600080fd5b5061083c612394565b6040518082815260200191505060405180910390f35b61085a6123b3565b005b34801561086857600080fd5b506109426004803603604081101561087f57600080fd5b810190808035906020019064010000000081111561089c57600080fd5b8201836020820111156108ae57600080fd5b803590602001918460018302840111640100000000831117156108d057600080fd5b91908080601f016020809104026020016040519081016040528093929190818152602001838380828437600081840152601f19601f820116905080830192505050505050509192919290803573ffffffffffffffffffffffffffffffffffffffff169060200190929190505050612420565b005b34801561095057600080fd5b50610a0a6004803603602081101561096757600080fd5b810190808035906020019064010000000081111561098457600080fd5b82018360208201111561099657600080fd5b803590602001918460018302840111640100000000831117156109b857600080fd5b91908080601f016020809104026020016040519081016040528093929190818152602001838380828437600081840152601f19601f820116905080830192505050505050509192919290505050612745565b604051808273ffffffffffffffffffffffffffffffffffffffff1673ffffffffffffffffffffffffffffffffffffffff16815260200191505060405180910390f35b348015610a5857600080fd5b50610b7260048036036080811015610a6f57600080fd5b8101908080359060200190640100000000811115610a8c57600080fd5b820183602082011115610a9e57600080fd5b80359060200191846001830284011164010000000083111715610ac057600080fd5b91908080601f016020809104026020016040519081016040528093929190818152602001838380828437600081840152601f19601f820116905080830192505050505050509192919290803573ffffffffffffffffffffffffffffffffffffffff169060200190929190803573ffffffffffffffffffffffffffffffffffffffff169060200190929190803573ffffffffffffffffffffffffffffffffffffffff169060200190929190505050612948565b005b348015610b8057600080fd5b50610bc360048036036020811015610b9757600080fd5b81019080803573ffffffffffffffffffffffffffffffffffffffff169060200190929190505050612ca5565b005b600115156004836040518082805190602001908083835b60208310610bff5780518252602082019150602081019050602083039250610bdc565b6001836020036101000a038019825116818451168082178552505050505050905001915050908152602001604051809103902060030160149054906101000a900460ff16151514610cb8576040517f08c379a00000000000000000000000000000000000000000000000000000000081526004018080602001828103825260128152602001807f636f696e206e6f7420737570706f72746564000000000000000000000000000081525060200191505060405180910390fd5b610cc182612d2b565b8102341015610d38576040517f08c379a00000000000000000000000000000000000000000000000000000000081526004018080602001828103825260178152602001807f6e6f7420656e6f7567682045544820737570706c69656400000000000000000081525060200191505060405180910390fd5b6004826040518082805190602001908083835b60208310610d6e5780518252602082019150602081019050602083039250610d4b565b6001836020036101000a038019825116818451168082178552505050505050905001915050908152602001604051809103902060010160009054906101000a900473ffffffffffffffffffffffffffffffffffffffff16600160006101000a81548173ffffffffffffffffffffffffffffffffffffffff021916908373ffffffffffffffffffffffffffffffffffffffff1602179055506000600160009054906101000a900473ffffffffffffffffffffffffffffffffffffffff1673ffffffffffffffffffffffffffffffffffffffff166323b872dd6004856040518082805190602001908083835b60208310610e7b5780518252602082019150602081019050602083039250610e58565b6001836020036101000a038019825116818451168082178552505050505050905001915050908152602001604051809103902060020160009054906101000a900473ffffffffffffffffffffffffffffffffffffffff1633856040518463ffffffff1660e01b8152600401808473ffffffffffffffffffffffffffffffffffffffff1673ffffffffffffffffffffffffffffffffffffffff1681526020018373ffffffffffffffffffffffffffffffffffffffff1673ffffffffffffffffffffffffffffffffffffffff1681526020018281526020019350505050602060405180830381600087803b158015610f7057600080fd5b505af1158015610f84573d6000803e3d6000fd5b505050506040513d6020811015610f9a57600080fd5b810190808051906020019092919050505090506001151581151514611027576040517f08c379a00000000000000000000000000000000000000000000000000000000081526004018080602001828103825260168152602001807f746f6b656e73207472616e73666572206661696c65640000000000000000000081525060200191505060405180910390fd5b6004836040518082805190602001908083835b6020831061105d578051825260208201915060208101905060208303925061103a565b6001836020036101000a038019825116818451168082178552505050505050905001915050908152602001604051809103902060030160009054906101000a900473ffffffffffffffffffffffffffffffffffffffff1673ffffffffffffffffffffffffffffffffffffffff166108fc60025434039081150290604051600060405180830381858888f193505050501580156110fd573d6000803e3d6000fd5b507f35ea94addbc62df281ade49cc2ad9b3d9259166170cf702928b4ddc045f7256e338334604051808473ffffffffffffffffffffffffffffffffffffffff1673ffffffffffffffffffffffffffffffffffffffff168152602001838152602001828152602001935050505060405180910390a1505050565b61117e611c69565b6111f0576040517f08c379a00000000000000000000000000000000000000000000000000000000081526004018080602001828103825260208152602001807f4f776e61626c653a2063616c6c6572206973206e6f7420746865206f776e657281525060200191505060405180910390fd5b806002819055507f028fb3547db27a12ea2446a9c9bae9d9ecf97ce6abb8ddaefd2605ea1f97618e816040518080602001838152602001828103825260038152602001807f42555900000000000000000000000000000000000000000000000000000000008152506020019250505060405180910390a150565b611272611c69565b6112e4576040517f08c379a00000000000000000000000000000000000000000000000000000000081526004018080602001828103825260208152602001807f4f776e61626c653a2063616c6c6572206973206e6f7420746865206f776e657281525060200191505060405180910390fd5b60006004826040518082805190602001908083835b6020831061131c57805182526020820191506020810190506020830392506112f9565b6001836020036101000a038019825116818451168082178552505050505050905001915050908152602001604051809103902060030160146101000a81548160ff0219169083151502179055507f333d2d52673c7776c91aa283963900bd158cff90530c243e2e6f76c2ffa305d3816040518080602001828103825283818151815260200191508051906020019080838360005b838110156113cb5780820151818401526020810190506113b0565b50505050905090810190601f1680156113f85780820380516001836020036101000a031916815260200191505b509250505060405180910390a150565b6000600354905090565b61141a611c69565b61148c576040517f08c379a00000000000000000000000000000000000000000000000000000000081526004018080602001828103825260208152602001807f4f776e61626c653a2063616c6c6572206973206e6f7420746865206f776e657281525060200191505060405180910390fd5b3073ffffffffffffffffffffffffffffffffffffffff16318111156114b057600080fd5b3373ffffffffffffffffffffffffffffffffffffffff166108fc829081150290604051600060405180830381858888f193505050501580156114f6573d6000803e3d6000fd5b507fd964a27d45f595739c13d8b1160b57491050cacf3a2e5602207277d6228f64ee8133604051808381526020018273ffffffffffffffffffffffffffffffffffffffff1673ffffffffffffffffffffffffffffffffffffffff1681526020019250505060405180910390a150565b6000600115156004836040518082805190602001908083835b602083106115a1578051825260208201915060208101905060208303925061157e565b6001836020036101000a038019825116818451168082178552505050505050905001915050908152602001604051809103902060030160149054906101000a900460ff1615151461165a576040517f08c379a00000000000000000000000000000000000000000000000000000000081526004018080602001828103825260128152602001807f636f696e206e6f7420737570706f72746564000000000000000000000000000081525060200191505060405180910390fd5b6004826040518082805190602001908083835b60208310611690578051825260208201915060208101905060208303925061166d565b6001836020036101000a038019825116818451168082178552505050505050905001915050908152602001604051809103902060010160009054906101000a900473ffffffffffffffffffffffffffffffffffffffff169050919050565b6116f6611c69565b611768576040517f08c379a00000000000000000000000000000000000000000000000000000000081526004018080602001828103825260208152602001807f4f776e61626c653a2063616c6c6572206973206e6f7420746865206f776e657281525060200191505060405180910390fd5b600073ffffffffffffffffffffffffffffffffffffffff166000809054906101000a900473ffffffffffffffffffffffffffffffffffffffff1673ffffffffffffffffffffffffffffffffffffffff167f8be0079c531659141344cd1fd0a4f28419497f9722a3daafe3b4186f6b6457e060405160405180910390a360008060006101000a81548173ffffffffffffffffffffffffffffffffffffffff021916908373ffffffffffffffffffffffffffffffffffffffff160217905550565b61182f611c69565b6118a1576040517f08c379a00000000000000000000000000000000000000000000000000000000081526004018080602001828103825260208152602001807f4f776e61626c653a2063616c6c6572206973206e6f7420746865206f776e657281525060200191505060405180910390fd5b806003819055507f028fb3547db27a12ea2446a9c9bae9d9ecf97ce6abb8ddaefd2605ea1f97618e816040518080602001838152602001828103825260048152602001807f53454c4c000000000000000000000000000000000000000000000000000000008152506020019250505060405180910390a150565b611923611c69565b611995576040517f08c379a00000000000000000000000000000000000000000000000000000000081526004018080602001828103825260208152602001807f4f776e61626c653a2063616c6c6572206973206e6f7420746865206f776e657281525060200191505060405180910390fd5b600115156004836040518082805190602001908083835b602083106119cf57805182526020820191506020810190506020830392506119ac565b6001836020036101000a038019825116818451168082178552505050505050905001915050908152602001604051809103902060030160149054906101000a900460ff16151514611a88576040517f08c379a00000000000000000000000000000000000000000000000000000000081526004018080602001828103825260128152602001807f636f696e206e6f7420737570706f72746564000000000000000000000000000081525060200191505060405180910390fd5b806004836040518082805190602001908083835b60208310611abf5780518252602082019150602081019050602083039250611a9c565b6001836020036101000a038019825116818451168082178552505050505050905001915050908152602001604051809103902060020160006101000a81548173ffffffffffffffffffffffffffffffffffffffff021916908373ffffffffffffffffffffffffffffffffffffffff1602179055507f4ce547b39bbb6232231e4c21c8264e0278a156e3437910296bdcf5a21f2fff3d82826040518080602001806020018473ffffffffffffffffffffffffffffffffffffffff1673ffffffffffffffffffffffffffffffffffffffff168152602001838103835285818151815260200191508051906020019080838360005b83811015611bcc578082015181840152602081019050611bb1565b50505050905090810190601f168015611bf95780820380516001836020036101000a031916815260200191505b50838103825260048152602001807f42414e4b0000000000000000000000000000000000000000000000000000000081525060200194505050505060405180910390a15050565b60008060009054906101000a900473ffffffffffffffffffffffffffffffffffffffff16905090565b60008060009054906101000a900473ffffffffffffffffffffffffffffffffffffffff1673ffffffffffffffffffffffffffffffffffffffff16611cab612d36565b73ffffffffffffffffffffffffffffffffffffffff1614905090565b6000600254905090565b6000611cdb611c69565b611d4d576040517f08c379a00000000000000000000000000000000000000000000000000000000081526004018080602001828103825260208152602001807f4f776e61626c653a2063616c6c6572206973206e6f7420746865206f776e657281525060200191505060405180910390fd5b600115156004836040518082805190602001908083835b60208310611d875780518252602082019150602081019050602083039250611d64565b6001836020036101000a038019825116818451168082178552505050505050905001915050908152602001604051809103902060030160149054906101000a900460ff16151514611e40576040517f08c379a00000000000000000000000000000000000000000000000000000000081526004018080602001828103825260128152602001807f636f696e206e6f7420737570706f72746564000000000000000000000000000081525060200191505060405180910390fd5b6004826040518082805190602001908083835b60208310611e765780518252602082019150602081019050602083039250611e53565b6001836020036101000a038019825116818451168082178552505050505050905001915050908152602001604051809103902060020160009054906101000a900473ffffffffffffffffffffffffffffffffffffffff169050919050565b600115156004836040518082805190602001908083835b60208310611f0e5780518252602082019150602081019050602083039250611eeb565b6001836020036101000a038019825116818451168082178552505050505050905001915050908152602001604051809103902060030160149054906101000a900460ff16151514611fc7576040517f08c379a00000000000000000000000000000000000000000000000000000000081526004018080602001828103825260128152602001807f636f696e206e6f7420737570706f72746564000000000000000000000000000081525060200191505060405180910390fd5b611fd082612d2b565b81023073ffffffffffffffffffffffffffffffffffffffff1631101561205e576040517f08c379a000000000000000000000000000000000000000000000000000000000815260040180806020018281038252601a8152602001807f636f6e7472616374206861736e277420656e6f7567682045544800000000000081525060200191505060405180910390fd5b6004826040518082805190602001908083835b602083106120945780518252602082019150602081019050602083039250612071565b6001836020036101000a038019825116818451168082178552505050505050905001915050908152602001604051809103902060010160009054906101000a900473ffffffffffffffffffffffffffffffffffffffff16600160006101000a81548173ffffffffffffffffffffffffffffffffffffffff021916908373ffffffffffffffffffffffffffffffffffffffff1602179055506000600160009054906101000a900473ffffffffffffffffffffffffffffffffffffffff1673ffffffffffffffffffffffffffffffffffffffff166323b872dd3330856040518463ffffffff1660e01b8152600401808473ffffffffffffffffffffffffffffffffffffffff1673ffffffffffffffffffffffffffffffffffffffff1681526020018373ffffffffffffffffffffffffffffffffffffffff1673ffffffffffffffffffffffffffffffffffffffff1681526020018281526020019350505050602060405180830381600087803b15801561220a57600080fd5b505af115801561221e573d6000803e3d6000fd5b505050506040513d602081101561223457600080fd5b8101908080519060200190929190505050905060011515811515146122c1576040517f08c379a00000000000000000000000000000000000000000000000000000000081526004018080602001828103825260158152602001807f746f6b656e207472616e73666572206661696c6564000000000000000000000081525060200191505060405180910390fd5b60006122cc84612d2b565b830290503373ffffffffffffffffffffffffffffffffffffffff166108fc60035483039081150290604051600060405180830381858888f1935050505015801561231a573d6000803e3d6000fd5b507f28cab0d660ed8aedd61a8c9db00b97f6a2d67e07d87795994f440b18bc5f1aa3338483604051808473ffffffffffffffffffffffffffffffffffffffff1673ffffffffffffffffffffffffffffffffffffffff168152602001838152602001828152602001935050505060405180910390a150505050565b60003073ffffffffffffffffffffffffffffffffffffffff1631905090565b7f4bcc17093cdf51079c755de089be5a85e70fa374ec656c194480fbdcda224a533433604051808381526020018273ffffffffffffffffffffffffffffffffffffffff1673ffffffffffffffffffffffffffffffffffffffff1681526020019250505060405180910390a1565b612428611c69565b61249a576040517f08c379a00000000000000000000000000000000000000000000000000000000081526004018080602001828103825260208152602001807f4f776e61626c653a2063616c6c6572206973206e6f7420746865206f776e657281525060200191505060405180910390fd5b600115156004836040518082805190602001908083835b602083106124d457805182526020820191506020810190506020830392506124b1565b6001836020036101000a038019825116818451168082178552505050505050905001915050908152602001604051809103902060030160149054906101000a900460ff1615151461258d576040517f08c379a00000000000000000000000000000000000000000000000000000000081526004018080602001828103825260128152602001807f636f696e206e6f7420737570706f72746564000000000000000000000000000081525060200191505060405180910390fd5b806004836040518082805190602001908083835b602083106125c457805182526020820191506020810190506020830392506125a1565b6001836020036101000a038019825116818451168082178552505050505050905001915050908152602001604051809103902060030160006101000a81548173ffffffffffffffffffffffffffffffffffffffff021916908373ffffffffffffffffffffffffffffffffffffffff1602179055507f4ce547b39bbb6232231e4c21c8264e0278a156e3437910296bdcf5a21f2fff3d82826040518080602001806020018473ffffffffffffffffffffffffffffffffffffffff1673ffffffffffffffffffffffffffffffffffffffff168152602001838103835285818151815260200191508051906020019080838360005b838110156126d15780820151818401526020810190506126b6565b50505050905090810190601f1680156126fe5780820380516001836020036101000a031916815260200191505b50838103825260038152602001807f504159000000000000000000000000000000000000000000000000000000000081525060200194505050505060405180910390a15050565b600061274f611c69565b6127c1576040517f08c379a00000000000000000000000000000000000000000000000000000000081526004018080602001828103825260208152602001807f4f776e61626c653a2063616c6c6572206973206e6f7420746865206f776e657281525060200191505060405180910390fd5b600115156004836040518082805190602001908083835b602083106127fb57805182526020820191506020810190506020830392506127d8565b6001836020036101000a038019825116818451168082178552505050505050905001915050908152602001604051809103902060030160149054906101000a900460ff161515146128b4576040517f08c379a00000000000000000000000000000000000000000000000000000000081526004018080602001828103825260128152602001807f636f696e206e6f7420737570706f72746564000000000000000000000000000081525060200191505060405180910390fd5b6004826040518082805190602001908083835b602083106128ea57805182526020820191506020810190506020830392506128c7565b6001836020036101000a038019825116818451168082178552505050505050905001915050908152602001604051809103902060030160009054906101000a900473ffffffffffffffffffffffffffffffffffffffff169050919050565b612950611c69565b6129c2576040517f08c379a00000000000000000000000000000000000000000000000000000000081526004018080602001828103825260208152602001807f4f776e61626c653a2063616c6c6572206973206e6f7420746865206f776e657281525060200191505060405180910390fd5b600015156004856040518082805190602001908083835b602083106129fc57805182526020820191506020810190506020830392506129d9565b6001836020036101000a038019825116818451168082178552505050505050905001915050908152602001604051809103902060030160149054906101000a900460ff16151514612ab5576040517f08c379a00000000000000000000000000000000000000000000000000000000081526004018080602001828103825260168152602001807f636f696e20616c726561647920737570706f727465640000000000000000000081525060200191505060405180910390fd5b6040518060a001604052808581526020018473ffffffffffffffffffffffffffffffffffffffff1681526020018373ffffffffffffffffffffffffffffffffffffffff1681526020018273ffffffffffffffffffffffffffffffffffffffff168152602001600115158152506004856040518082805190602001908083835b60208310612b575780518252602082019150602081019050602083039250612b34565b6001836020036101000a03801982511681845116808217855250505050505090500191505090815260200160405180910390206000820151816000019080519060200190612ba6929190612e82565b5060208201518160010160006101000a81548173ffffffffffffffffffffffffffffffffffffffff021916908373ffffffffffffffffffffffffffffffffffffffff16021790555060408201518160020160006101000a81548173ffffffffffffffffffffffffffffffffffffffff021916908373ffffffffffffffffffffffffffffffffffffffff16021790555060608201518160030160006101000a81548173ffffffffffffffffffffffffffffffffffffffff021916908373ffffffffffffffffffffffffffffffffffffffff16021790555060808201518160030160146101000a81548160ff02191690831515021790555090505050505050565b612cad611c69565b612d1f576040517f08c379a00000000000000000000000000000000000000000000000000000000081526004018080602001828103825260208152602001807f4f776e61626c653a2063616c6c6572206973206e6f7420746865206f776e657281525060200191505060405180910390fd5b612d2881612d3e565b50565b600060649050919050565b600033905090565b600073ffffffffffffffffffffffffffffffffffffffff168173ffffffffffffffffffffffffffffffffffffffff161415612dc4576040517f08c379a0000000000000000000000000000000000000000000000000000000008152600401808060200182810382526026815260200180612f286026913960400191505060405180910390fd5b8073ffffffffffffffffffffffffffffffffffffffff166000809054906101000a900473ffffffffffffffffffffffffffffffffffffffff1673ffffffffffffffffffffffffffffffffffffffff167f8be0079c531659141344cd1fd0a4f28419497f9722a3daafe3b4186f6b6457e060405160405180910390a3806000806101000a81548173ffffffffffffffffffffffffffffffffffffffff021916908373ffffffffffffffffffffffffffffffffffffffff16021790555050565b828054600181600116156101000203166002900490600052602060002090601f016020900481019282601f10612ec357805160ff1916838001178555612ef1565b82800160010185558215612ef1579182015b82811115612ef0578251825591602001919060010190612ed5565b5b509050612efe9190612f02565b5090565b612f2491905b80821115612f20576000816000905550600101612f08565b5090565b9056fe4f776e61626c653a206e6577206f776e657220697320746865207a65726f2061646472657373a2646970667358221220e7c0f21fb00b52a802fb69983fc34552caf8d4c268e71879215f6a8abdbd678064736f6c63430006000033",
  "source": "pragma solidity ^0.6.0;\r\n\r\n//import \"https://github.com/OpenZeppelin/openzeppelin-contracts/blob/master/contracts/ownership/Ownable.sol\";\r\nimport \"../lib/openzeppelin/contracts/ownership/Ownable.sol\";\r\n\r\n/**\r\n * @dev ERC20 interface that allows to interact with different tokens abstracting from their implementation\r\n **/\r\ncontract ERC20 {\r\n\r\n    function totalSupply() public view returns (uint) {}\r\n    function balanceOf(address tokenOwner) public view returns (uint balance) {}\r\n    function allowance(address tokenOwner, address spender) public view returns (uint remaining){}\r\n    function transfer(address to, uint tokens) public returns (bool success) {}\r\n    function approve(address spender, uint tokens) public returns (bool success) {}\r\n    function transferFrom(address from, address to, uint tokens) public returns (bool success) {}\r\n\r\n}\r\n\r\n/**\r\n * @title FakeExchange\r\n **/\r\ncontract FakeExchange is Ownable {\r\n    \r\n    ERC20 stub; ///stub for interactions with ERC20 token contracts\r\n    uint buyFee; ///exchange fee for users purchases\r\n    uint sellFee; ///exchange fee for users sales\r\n\r\n    event TokenSold(address customer,uint qty,uint price); ///event emitted on tokens purchases\r\n    event TokenBought(address seller, uint qty, uint price); ///event emitted on tokens sales\r\n    event TokenAddressChanged(string tokenID, string addressType, address newAddress); ///event emitted when one of the token addresses has been modified\r\n    event TokenDeleted(string tokenID); ///event emitted when a token has been deleted\r\n    event FeeChanged(string feeType,uint newValue); ///event emitted when exchange sellFee or buyFee has been modified\r\n    event Deposit(uint amount, address from); ///event emitted on deposit\r\n    event Withdrawal(uint amount, address from); ///event emitted on withdrawal\r\n    \r\n    constructor () public {\r\n        sellFee = 100;\r\n        buyFee = 100;\r\n        emit FeeChanged(\"SELL\",sellFee);\r\n        emit FeeChanged(\"BUY\",buyFee);\r\n    }\r\n    \r\n    struct Token {\r\n        string id; ///token identifier\r\n        address tokenAddress; ///token contract address\r\n        address bankAddress; ///address from which tokens are transfered during exchange sales\r\n        address payable payAddress; ///address to send to ETH-buyFee after tokens have been sold\r\n        bool supported; ///if exchange supports this token or not\r\n    }\r\n\r\n    mapping(string => Token) supportedCoins; ///mapping to track supported tokens\r\n    \r\n    /**\r\n     * @dev add a new supported token (callable only by exchange owner)\r\n     * @param id token identifier\r\n     * @param tokenAddr token contract address\r\n     * @param bankAddr token bank address\r\n     * @param payAddr token pay address\r\n     **/\r\n    function addToken(string memory id,address tokenAddr,address bankAddr,address payable payAddr) onlyOwner public {\r\n        require(supportedCoins[id].supported == false, \"coin already supported\");\r\n        supportedCoins[id] = Token(id,tokenAddr,bankAddr,payAddr,true);\r\n    }\r\n    \r\n    /**\r\n     * @dev remove supported token (callable only by exchange owner)\r\n     * @param id token identifier\r\n     **/\r\n    function removeToken(string memory id) public onlyOwner {\r\n        supportedCoins[id].supported = false;\r\n        emit TokenDeleted(id);\r\n    }\r\n    \r\n    /**\r\n     * @dev set new bank address on an existing token (callable only by exchange owner)\r\n     * @param id token identifier\r\n     * @param bankAddr new bank address\r\n     **/\r\n    function setBankAddr(string memory id,address bankAddr) public onlyOwner {\r\n        require(supportedCoins[id].supported == true, \"coin not supported\");\r\n        supportedCoins[id].bankAddress = bankAddr;\r\n        emit TokenAddressChanged(id, \"BANK\", bankAddr);\r\n    }\r\n    \r\n    /**\r\n     * @dev set new pay address on an existing token (callable only by exchange owner)\r\n     * @param id token identifier\r\n     * @param payAddr new pay address\r\n     **/\r\n    function setPayAddr(string memory id,address payable payAddr) public onlyOwner {\r\n        require(supportedCoins[id].supported == true, \"coin not supported\");\r\n        supportedCoins[id].payAddress = payAddr;\r\n        emit TokenAddressChanged(id, \"PAY\", payAddr);\r\n    }\r\n    \r\n    /**\r\n     * @dev getter for token pay address (callable only by exchange owner)\r\n     * @param id token identifier\r\n     * @return token pay address\r\n     **/\r\n    function getPayAddr(string memory id) public view onlyOwner returns (address) {\r\n        require(supportedCoins[id].supported == true, \"coin not supported\");\r\n        return supportedCoins[id].payAddress;\r\n    }\r\n    \r\n    /**\r\n     * @dev getter for token bank address (callable only by exchange owner)\r\n     * @param id token identifier\r\n     * @return token bank address\r\n     **/\r\n    function getBankAddr(string memory id) public view onlyOwner returns (address) {\r\n        require(supportedCoins[id].supported == true, \"coin not supported\");\r\n        return supportedCoins[id].bankAddress;\r\n    }\r\n    \r\n    /**\r\n     * @dev getter for token contract address\r\n     * @param id token identifier\r\n     * @return token contract address\r\n     **/\r\n    function getTokenAddr(string memory id) public view returns (address) {\r\n        require(supportedCoins[id].supported == true, \"coin not supported\");\r\n        return supportedCoins[id].tokenAddress;\r\n    }\r\n    \r\n    /**\r\n     * @dev set exchange buyFee (callable only by exchange owner)\r\n     * @param newFee new fee \r\n     **/\r\n    function setBuyFee(uint newFee) public onlyOwner {\r\n        buyFee = newFee;\r\n        emit FeeChanged(\"BUY\",newFee);\r\n    }\r\n    \r\n    /**\r\n     * @dev set exchange sellFee (callable only by exchange owner)\r\n     * @param newFee new fee \r\n     **/\r\n    function setSellFee(uint newFee) public onlyOwner {\r\n        sellFee = newFee;\r\n        emit FeeChanged(\"SELL\",newFee);\r\n    }\r\n    \r\n    /**\r\n     * @dev getter for buy fee\r\n     * @return buyFee\r\n     **/\r\n    function getBuyFee() public view returns (uint) {\r\n        return buyFee;\r\n    }\r\n    \r\n    /**\r\n     * @dev getter for sell fee\r\n     * @return sellFee\r\n     **/\r\n    function getSellFee() public view returns (uint) {\r\n        return sellFee;\r\n    }\r\n    \r\n    /**\r\n     * @dev get token price (in a real-life scenario should be implemented with some logic)\r\n     * @param id token identifier\r\n     * @return token price (in ETH)\r\n     **/\r\n    function getPrice(string memory id) pure internal returns(uint256){\r\n        return 100;\r\n    }\r\n    \r\n    /**\r\n     * @dev buy tokens\r\n     * @param id token identifier\r\n     * @param qty amount \r\n     **/\r\n    function buy(string memory id, uint qty) payable public {\r\n        require(supportedCoins[id].supported == true, \"coin not supported\");\r\n        require(msg.value >= qty * getPrice(id), \"not enough ETH supplied\");\r\n        stub = ERC20(supportedCoins[id].tokenAddress); ///loading token contract instance in ERC20 stub\r\n        bool result = stub.transferFrom(supportedCoins[id].bankAddress,msg.sender,qty);\r\n        require(result == true,\"tokens transfer failed\");\r\n        supportedCoins[id].payAddress.transfer(msg.value - buyFee); ///pay token contract and get fee\r\n        emit TokenSold(msg.sender,qty,msg.value);\r\n    }\r\n    \r\n    /**\r\n     * @dev sell tokens\r\n     * @param id token identifier\r\n     * @param qty amount\r\n     **/\r\n    function sell(string memory id, uint qty) public {\r\n        require(supportedCoins[id].supported == true, \"coin not supported\"); //check if this coin is supported\r\n        require(address(this).balance >= qty * getPrice(id),\"contract hasn't enough ETH\"); //check if this contract has enough ETH to buy\r\n        stub = ERC20(supportedCoins[id].tokenAddress);\r\n        bool result = stub.transferFrom(msg.sender,address(this),qty);\r\n        require(result == true, \"token transfer failed\"); //check that token transfer has been successful\r\n        uint price = qty * getPrice(id);\r\n        msg.sender.transfer(price - sellFee); //pay seller\r\n        emit TokenBought(msg.sender,qty,price);\r\n    }\r\n    \r\n    /**\r\n     * @dev get exchange current balance\r\n     * @return exchange balance\r\n     **/\r\n    function balance() public view returns (uint){\r\n        return address(this).balance;\r\n    }\r\n    \r\n    /**\r\n     * @dev transfer ETH to exchange\r\n     **/\r\n    function deposit() public payable {\r\n\t    emit Deposit(msg.value,msg.sender);\r\n    }\r\n    \r\n    /**\r\n     * @dev withdraw ETH from exchange (callable only by exchange owner)\r\n     * @param amount qty to withdraw\r\n     **/\r\n    function withdraw(uint256 amount) external onlyOwner {\r\n        require(amount <= address(this).balance);\r\n        msg.sender.transfer(amount);\r\n    \temit Withdrawal(amount,msg.sender);\r\n    } \r\n    \r\n    receive() external payable {}\r\n    \r\n    fallback() external payable {}\r\n\r\n\r\n}\r\n",
  "sourcePath": "C:/Users/paulon/Desktop/WebApps/Ethereum/git/FakeExchange/contracts/FakeExchange.sol",
  "compiler": {
    "name": "solc",
    "version": "0.6.0+commit.26b70077.Emscripten.clang"
  },
  "schemaVersion": "3.0.20",
  "updatedAt": "2020-02-28T09:21:35.099Z",
  "networkType": "ethereum",
  "devdoc": {
    "methods": {
      "addToken(string,address,address,address)": {
        "details": "add a new supported token (callable only by exchange owner)",
        "params": {
          "bankAddr": "token bank address",
          "id": "token identifier",
          "payAddr": "token pay address*",
          "tokenAddr": "token contract address"
        }
      },
      "balance()": {
        "details": "get exchange current balance",
        "returns": {
          "_0": "exchange balance*"
        }
      },
      "buy(string,uint256)": {
        "details": "buy tokens",
        "params": {
          "id": "token identifier",
          "qty": "amount *"
        }
      },
      "deposit()": {
        "details": "transfer ETH to exchange*"
      },
      "getBankAddr(string)": {
        "details": "getter for token bank address (callable only by exchange owner)",
        "params": {
          "id": "token identifier"
        },
        "returns": {
          "_0": "token bank address*"
        }
      },
      "getBuyFee()": {
        "details": "getter for buy fee",
        "returns": {
          "_0": "buyFee*"
        }
      },
      "getPayAddr(string)": {
        "details": "getter for token pay address (callable only by exchange owner)",
        "params": {
          "id": "token identifier"
        },
        "returns": {
          "_0": "token pay address*"
        }
      },
      "getSellFee()": {
        "details": "getter for sell fee",
        "returns": {
          "_0": "sellFee*"
        }
      },
      "getTokenAddr(string)": {
        "details": "getter for token contract address",
        "params": {
          "id": "token identifier"
        },
        "returns": {
          "_0": "token contract address*"
        }
      },
      "isOwner()": {
        "details": "Returns true if the caller is the current owner."
      },
      "owner()": {
        "details": "Returns the address of the current owner."
      },
      "removeToken(string)": {
        "details": "remove supported token (callable only by exchange owner)",
        "params": {
          "id": "token identifier*"
        }
      },
      "renounceOwnership()": {
        "details": "Leaves the contract without owner. It will not be possible to call `onlyOwner` functions anymore. Can only be called by the current owner.      * NOTE: Renouncing ownership will leave the contract without an owner, thereby removing any functionality that is only available to the owner."
      },
      "sell(string,uint256)": {
        "details": "sell tokens",
        "params": {
          "id": "token identifier",
          "qty": "amount*"
        }
      },
      "setBankAddr(string,address)": {
        "details": "set new bank address on an existing token (callable only by exchange owner)",
        "params": {
          "bankAddr": "new bank address*",
          "id": "token identifier"
        }
      },
      "setBuyFee(uint256)": {
        "details": "set exchange buyFee (callable only by exchange owner)",
        "params": {
          "newFee": "new fee *"
        }
      },
      "setPayAddr(string,address)": {
        "details": "set new pay address on an existing token (callable only by exchange owner)",
        "params": {
          "id": "token identifier",
          "payAddr": "new pay address*"
        }
      },
      "setSellFee(uint256)": {
        "details": "set exchange sellFee (callable only by exchange owner)",
        "params": {
          "newFee": "new fee *"
        }
      },
      "transferOwnership(address)": {
        "details": "Transfers ownership of the contract to a new account (`newOwner`). Can only be called by the current owner."
      },
      "withdraw(uint256)": {
        "details": "withdraw ETH from exchange (callable only by exchange owner)",
        "params": {
          "amount": "qty to withdraw*"
        }
      }
    },
    "title": "FakeExchange*"
  },
  "userdoc": {
    "methods": {
      "constructor": "event emitted on withdrawal"
    }
  }
}