{
  "contractName": "FakeExchange",
  "abi": [
    {
      "inputs": [],
      "stateMutability": "nonpayable",
      "type": "constructor"
    },
    {
      "anonymous": false,
      "inputs": [
        {
          "indexed": false,
          "internalType": "uint256",
          "name": "newValue",
          "type": "uint256"
        }
      ],
      "name": "FeeChanged",
      "type": "event"
    },
    {
      "anonymous": false,
      "inputs": [
        {
          "indexed": true,
          "internalType": "address",
          "name": "previousOwner",
          "type": "address"
        },
        {
          "indexed": true,
          "internalType": "address",
          "name": "newOwner",
          "type": "address"
        }
      ],
      "name": "OwnershipTransferred",
      "type": "event"
    },
    {
      "anonymous": false,
      "inputs": [
        {
          "indexed": false,
          "internalType": "string",
          "name": "tokenID",
          "type": "string"
        },
        {
          "indexed": false,
          "internalType": "string",
          "name": "addressType",
          "type": "string"
        },
        {
          "indexed": false,
          "internalType": "address",
          "name": "newAddress",
          "type": "address"
        }
      ],
      "name": "TokenAddressChanged",
      "type": "event"
    },
    {
      "anonymous": false,
      "inputs": [
        {
          "indexed": false,
          "internalType": "address",
          "name": "seller",
          "type": "address"
        },
        {
          "indexed": false,
          "internalType": "uint256",
          "name": "qty",
          "type": "uint256"
        },
        {
          "indexed": false,
          "internalType": "uint256",
          "name": "price",
          "type": "uint256"
        }
      ],
      "name": "TokenBought",
      "type": "event"
    },
    {
      "anonymous": false,
      "inputs": [
        {
          "indexed": false,
          "internalType": "string",
          "name": "tokenID",
          "type": "string"
        }
      ],
      "name": "TokenDeleted",
      "type": "event"
    },
    {
      "anonymous": false,
      "inputs": [
        {
          "indexed": false,
          "internalType": "address",
          "name": "customer",
          "type": "address"
        },
        {
          "indexed": false,
          "internalType": "uint256",
          "name": "qty",
          "type": "uint256"
        },
        {
          "indexed": false,
          "internalType": "uint256",
          "name": "price",
          "type": "uint256"
        }
      ],
      "name": "TokenSold",
      "type": "event"
    },
    {
      "stateMutability": "payable",
      "type": "fallback",
      "payable": true
    },
    {
      "inputs": [],
      "name": "isOwner",
      "outputs": [
        {
          "internalType": "bool",
          "name": "",
          "type": "bool"
        }
      ],
      "stateMutability": "view",
      "type": "function",
      "constant": true
    },
    {
      "inputs": [],
      "name": "owner",
      "outputs": [
        {
          "internalType": "address",
          "name": "",
          "type": "address"
        }
      ],
      "stateMutability": "view",
      "type": "function",
      "constant": true
    },
    {
      "inputs": [],
      "name": "renounceOwnership",
      "outputs": [],
      "stateMutability": "nonpayable",
      "type": "function"
    },
    {
      "inputs": [
        {
          "internalType": "address",
          "name": "newOwner",
          "type": "address"
        }
      ],
      "name": "transferOwnership",
      "outputs": [],
      "stateMutability": "nonpayable",
      "type": "function"
    },
    {
      "stateMutability": "payable",
      "type": "receive",
      "payable": true
    },
    {
      "inputs": [
        {
          "internalType": "string",
          "name": "id",
          "type": "string"
        },
        {
          "internalType": "address",
          "name": "tokenAddr",
          "type": "address"
        },
        {
          "internalType": "address",
          "name": "bankAddr",
          "type": "address"
        },
        {
          "internalType": "address payable",
          "name": "payAddr",
          "type": "address"
        }
      ],
      "name": "addToken",
      "outputs": [],
      "stateMutability": "nonpayable",
      "type": "function"
    },
    {
      "inputs": [
        {
          "internalType": "string",
          "name": "id",
          "type": "string"
        }
      ],
      "name": "removeToken",
      "outputs": [],
      "stateMutability": "nonpayable",
      "type": "function"
    },
    {
      "inputs": [
        {
          "internalType": "string",
          "name": "id",
          "type": "string"
        },
        {
          "internalType": "address",
          "name": "bankAddr",
          "type": "address"
        }
      ],
      "name": "setBankAddr",
      "outputs": [],
      "stateMutability": "nonpayable",
      "type": "function"
    },
    {
      "inputs": [
        {
          "internalType": "string",
          "name": "id",
          "type": "string"
        },
        {
          "internalType": "address payable",
          "name": "payAddr",
          "type": "address"
        }
      ],
      "name": "setPayAddr",
      "outputs": [],
      "stateMutability": "nonpayable",
      "type": "function"
    },
    {
      "inputs": [
        {
          "internalType": "string",
          "name": "id",
          "type": "string"
        }
      ],
      "name": "getPayAddr",
      "outputs": [
        {
          "internalType": "address",
          "name": "",
          "type": "address"
        }
      ],
      "stateMutability": "view",
      "type": "function",
      "constant": true
    },
    {
      "inputs": [
        {
          "internalType": "string",
          "name": "id",
          "type": "string"
        }
      ],
      "name": "getBankAddr",
      "outputs": [
        {
          "internalType": "address",
          "name": "",
          "type": "address"
        }
      ],
      "stateMutability": "view",
      "type": "function",
      "constant": true
    },
    {
      "inputs": [
        {
          "internalType": "string",
          "name": "id",
          "type": "string"
        }
      ],
      "name": "getTokenAddr",
      "outputs": [
        {
          "internalType": "address",
          "name": "",
          "type": "address"
        }
      ],
      "stateMutability": "view",
      "type": "function",
      "constant": true
    },
    {
      "inputs": [
        {
          "internalType": "uint256",
          "name": "newFee",
          "type": "uint256"
        }
      ],
      "name": "setFee",
      "outputs": [],
      "stateMutability": "nonpayable",
      "type": "function"
    },
    {
      "inputs": [],
      "name": "getFee",
      "outputs": [
        {
          "internalType": "uint256",
          "name": "",
          "type": "uint256"
        }
      ],
      "stateMutability": "view",
      "type": "function",
      "constant": true
    },
    {
      "inputs": [
        {
          "internalType": "string",
          "name": "id",
          "type": "string"
        },
        {
          "internalType": "uint256",
          "name": "qty",
          "type": "uint256"
        }
      ],
      "name": "buy",
      "outputs": [],
      "stateMutability": "payable",
      "type": "function",
      "payable": true
    },
    {
      "inputs": [
        {
          "internalType": "string",
          "name": "id",
          "type": "string"
        },
        {
          "internalType": "uint256",
          "name": "qty",
          "type": "uint256"
        }
      ],
      "name": "sell",
      "outputs": [],
      "stateMutability": "nonpayable",
      "type": "function"
    },
    {
      "inputs": [],
      "name": "balance",
      "outputs": [
        {
          "internalType": "uint256",
          "name": "",
          "type": "uint256"
        }
      ],
      "stateMutability": "view",
      "type": "function",
      "constant": true
    },
    {
      "inputs": [],
      "name": "deposit",
      "outputs": [],
      "stateMutability": "payable",
      "type": "function",
      "payable": true
    },
    {
      "inputs": [
        {
          "internalType": "uint256",
          "name": "amount",
          "type": "uint256"
        }
      ],
      "name": "withdraw",
      "outputs": [],
      "stateMutability": "nonpayable",
      "type": "function"
    }
  ],
  "bytecode": "0x608060405234801561001057600080fd5b50600061002161010460201b60201c565b9050806000806101000a81548173ffffffffffffffffffffffffffffffffffffffff021916908373ffffffffffffffffffffffffffffffffffffffff1602179055508073ffffffffffffffffffffffffffffffffffffffff16600073ffffffffffffffffffffffffffffffffffffffff167f8be0079c531659141344cd1fd0a4f28419497f9722a3daafe3b4186f6b6457e060405160405180910390a35060646002819055507f6bbc57480a46553fa4d156ce702beef5f3ad66303b0ed1a5d4cb44966c6584c360646040518082815260200191505060405180910390a161010c565b600033905090565b612a668061011b6000396000f3fe60806040526004361061010d5760003560e01c8063993087d411610095578063d0e30db011610064578063d0e30db0146107d6578063ddde391b146107e0578063e62d6b5b146108c8578063ebd516d5146109d0578063f2fde38b14610af857610114565b8063993087d4146105a65780639f656321146106ae578063b69ef8a814610780578063ced72f87146107ab57610114565b80636ff4206f116100dc5780636ff4206f14610319578063715018a6146104215780638b77c842146104385780638da5cb5b146105205780638f32d59b1461057757610114565b80630ca5c504146101165780631f455922146101db5780632e1a7d4d146102a357806369fe0e2d146102de57610114565b3661011457005b005b6101d96004803603604081101561012c57600080fd5b810190808035906020019064010000000081111561014957600080fd5b82018360208201111561015b57600080fd5b8035906020019184600183028401116401000000008311171561017d57600080fd5b91908080601f016020809104026020016040519081016040528093929190818152602001838380828437600081840152601f19601f82011690508083019250505050505050919291929080359060200190929190505050610b49565b005b3480156101e757600080fd5b506102a1600480360360208110156101fe57600080fd5b810190808035906020019064010000000081111561021b57600080fd5b82018360208201111561022d57600080fd5b8035906020019184600183028401116401000000008311171561024f57600080fd5b91908080601f016020809104026020016040519081016040528093929190818152602001838380828437600081840152601f19601f820116905080830192505050505050509192919290505050611091565b005b3480156102af57600080fd5b506102dc600480360360208110156102c657600080fd5b810190808035906020019092919050505061122f565b005b3480156102ea57600080fd5b506103176004803603602081101561030157600080fd5b8101908080359060200190929190505050611300565b005b34801561032557600080fd5b506103df6004803603602081101561033c57600080fd5b810190808035906020019064010000000081111561035957600080fd5b82018360208201111561036b57600080fd5b8035906020019184600183028401116401000000008311171561038d57600080fd5b91908080601f016020809104026020016040519081016040528093929190818152602001838380828437600081840152601f19601f8201169050808301925050505050505091929192905050506113bb565b604051808273ffffffffffffffffffffffffffffffffffffffff1673ffffffffffffffffffffffffffffffffffffffff16815260200191505060405180910390f35b34801561042d57600080fd5b50610436611544565b005b34801561044457600080fd5b5061051e6004803603604081101561045b57600080fd5b810190808035906020019064010000000081111561047857600080fd5b82018360208201111561048a57600080fd5b803590602001918460018302840111640100000000831117156104ac57600080fd5b91908080601f016020809104026020016040519081016040528093929190818152602001838380828437600081840152601f19601f820116905080830192505050505050509192919290803573ffffffffffffffffffffffffffffffffffffffff16906020019092919050505061167d565b005b34801561052c57600080fd5b506105356118af565b604051808273ffffffffffffffffffffffffffffffffffffffff1673ffffffffffffffffffffffffffffffffffffffff16815260200191505060405180910390f35b34801561058357600080fd5b5061058c6118d8565b604051808215151515815260200191505060405180910390f35b3480156105b257600080fd5b5061066c600480360360208110156105c957600080fd5b81019080803590602001906401000000008111156105e657600080fd5b8201836020820111156105f857600080fd5b8035906020019184600183028401116401000000008311171561061a57600080fd5b91908080601f016020809104026020016040519081016040528093929190818152602001838380828437600081840152601f19601f820116905080830192505050505050509192919290505050611936565b604051808273ffffffffffffffffffffffffffffffffffffffff1673ffffffffffffffffffffffffffffffffffffffff16815260200191505060405180910390f35b3480156106ba57600080fd5b5061077e600480360360408110156106d157600080fd5b81019080803590602001906401000000008111156106ee57600080fd5b82018360208201111561070057600080fd5b8035906020019184600183028401116401000000008311171561072257600080fd5b91908080601f016020809104026020016040519081016040528093929190818152602001838380828437600081840152601f19601f82011690508083019250505050505050919291929080359060200190929190505050611b39565b005b34801561078c57600080fd5b50610795611fe2565b6040518082815260200191505060405180910390f35b3480156107b757600080fd5b506107c0611fea565b6040518082815260200191505060405180910390f35b6107de611ff4565b005b3480156107ec57600080fd5b506108c66004803603604081101561080357600080fd5b810190808035906020019064010000000081111561082057600080fd5b82018360208201111561083257600080fd5b8035906020019184600183028401116401000000008311171561085457600080fd5b91908080601f016020809104026020016040519081016040528093929190818152602001838380828437600081840152601f19601f820116905080830192505050505050509192919290803573ffffffffffffffffffffffffffffffffffffffff169060200190929190505050611ff6565b005b3480156108d457600080fd5b5061098e600480360360208110156108eb57600080fd5b810190808035906020019064010000000081111561090857600080fd5b82018360208201111561091a57600080fd5b8035906020019184600183028401116401000000008311171561093c57600080fd5b91908080601f016020809104026020016040519081016040528093929190818152602001838380828437600081840152601f19601f820116905080830192505050505050509192919290505050612228565b604051808273ffffffffffffffffffffffffffffffffffffffff1673ffffffffffffffffffffffffffffffffffffffff16815260200191505060405180910390f35b3480156109dc57600080fd5b50610af6600480360360808110156109f357600080fd5b8101908080359060200190640100000000811115610a1057600080fd5b820183602082011115610a2257600080fd5b80359060200191846001830284011164010000000083111715610a4457600080fd5b91908080601f016020809104026020016040519081016040528093929190818152602001838380828437600081840152601f19601f820116905080830192505050505050509192919290803573ffffffffffffffffffffffffffffffffffffffff169060200190929190803573ffffffffffffffffffffffffffffffffffffffff169060200190929190803573ffffffffffffffffffffffffffffffffffffffff16906020019092919050505061242b565b005b348015610b0457600080fd5b50610b4760048036036020811015610b1b57600080fd5b81019080803573ffffffffffffffffffffffffffffffffffffffff169060200190929190505050612788565b005b600115156003836040518082805190602001908083835b60208310610b835780518252602082019150602081019050602083039250610b60565b6001836020036101000a038019825116818451168082178552505050505050905001915050908152602001604051809103902060030160149054906101000a900460ff16151514610c3c576040517f08c379a00000000000000000000000000000000000000000000000000000000081526004018080602001828103825260128152602001807f636f696e206e6f7420737570706f72746564000000000000000000000000000081525060200191505060405180910390fd5b610c458261280e565b8102341015610cbc576040517f08c379a00000000000000000000000000000000000000000000000000000000081526004018080602001828103825260178152602001807f6e6f7420656e6f7567682045544820737570706c69656400000000000000000081525060200191505060405180910390fd5b6003826040518082805190602001908083835b60208310610cf25780518252602082019150602081019050602083039250610ccf565b6001836020036101000a038019825116818451168082178552505050505050905001915050908152602001604051809103902060010160009054906101000a900473ffffffffffffffffffffffffffffffffffffffff16600160006101000a81548173ffffffffffffffffffffffffffffffffffffffff021916908373ffffffffffffffffffffffffffffffffffffffff1602179055506000600160009054906101000a900473ffffffffffffffffffffffffffffffffffffffff1673ffffffffffffffffffffffffffffffffffffffff166323b872dd6003856040518082805190602001908083835b60208310610dff5780518252602082019150602081019050602083039250610ddc565b6001836020036101000a038019825116818451168082178552505050505050905001915050908152602001604051809103902060020160009054906101000a900473ffffffffffffffffffffffffffffffffffffffff1633856040518463ffffffff1660e01b8152600401808473ffffffffffffffffffffffffffffffffffffffff1673ffffffffffffffffffffffffffffffffffffffff1681526020018373ffffffffffffffffffffffffffffffffffffffff1673ffffffffffffffffffffffffffffffffffffffff1681526020018281526020019350505050602060405180830381600087803b158015610ef457600080fd5b505af1158015610f08573d6000803e3d6000fd5b505050506040513d6020811015610f1e57600080fd5b810190808051906020019092919050505090506001151581151514610f4257600080fd5b6003836040518082805190602001908083835b60208310610f785780518252602082019150602081019050602083039250610f55565b6001836020036101000a038019825116818451168082178552505050505050905001915050908152602001604051809103902060030160009054906101000a900473ffffffffffffffffffffffffffffffffffffffff1673ffffffffffffffffffffffffffffffffffffffff166108fc60025434039081150290604051600060405180830381858888f19350505050158015611018573d6000803e3d6000fd5b507f35ea94addbc62df281ade49cc2ad9b3d9259166170cf702928b4ddc045f7256e338334604051808473ffffffffffffffffffffffffffffffffffffffff1673ffffffffffffffffffffffffffffffffffffffff168152602001838152602001828152602001935050505060405180910390a1505050565b6110996118d8565b61110b576040517f08c379a00000000000000000000000000000000000000000000000000000000081526004018080602001828103825260208152602001807f4f776e61626c653a2063616c6c6572206973206e6f7420746865206f776e657281525060200191505060405180910390fd5b60006003826040518082805190602001908083835b602083106111435780518252602082019150602081019050602083039250611120565b6001836020036101000a038019825116818451168082178552505050505050905001915050908152602001604051809103902060030160146101000a81548160ff0219169083151502179055507f333d2d52673c7776c91aa283963900bd158cff90530c243e2e6f76c2ffa305d3816040518080602001828103825283818151815260200191508051906020019080838360005b838110156111f25780820151818401526020810190506111d7565b50505050905090810190601f16801561121f5780820380516001836020036101000a031916815260200191505b509250505060405180910390a150565b6112376118d8565b6112a9576040517f08c379a00000000000000000000000000000000000000000000000000000000081526004018080602001828103825260208152602001807f4f776e61626c653a2063616c6c6572206973206e6f7420746865206f776e657281525060200191505060405180910390fd5b478111156112b657600080fd5b3373ffffffffffffffffffffffffffffffffffffffff166108fc829081150290604051600060405180830381858888f193505050501580156112fc573d6000803e3d6000fd5b5050565b6113086118d8565b61137a576040517f08c379a00000000000000000000000000000000000000000000000000000000081526004018080602001828103825260208152602001807f4f776e61626c653a2063616c6c6572206973206e6f7420746865206f776e657281525060200191505060405180910390fd5b806002819055507f6bbc57480a46553fa4d156ce702beef5f3ad66303b0ed1a5d4cb44966c6584c3816040518082815260200191505060405180910390a150565b6000600115156003836040518082805190602001908083835b602083106113f757805182526020820191506020810190506020830392506113d4565b6001836020036101000a038019825116818451168082178552505050505050905001915050908152602001604051809103902060030160149054906101000a900460ff161515146114b0576040517f08c379a00000000000000000000000000000000000000000000000000000000081526004018080602001828103825260128152602001807f636f696e206e6f7420737570706f72746564000000000000000000000000000081525060200191505060405180910390fd5b6003826040518082805190602001908083835b602083106114e657805182526020820191506020810190506020830392506114c3565b6001836020036101000a038019825116818451168082178552505050505050905001915050908152602001604051809103902060010160009054906101000a900473ffffffffffffffffffffffffffffffffffffffff169050919050565b61154c6118d8565b6115be576040517f08c379a00000000000000000000000000000000000000000000000000000000081526004018080602001828103825260208152602001807f4f776e61626c653a2063616c6c6572206973206e6f7420746865206f776e657281525060200191505060405180910390fd5b600073ffffffffffffffffffffffffffffffffffffffff166000809054906101000a900473ffffffffffffffffffffffffffffffffffffffff1673ffffffffffffffffffffffffffffffffffffffff167f8be0079c531659141344cd1fd0a4f28419497f9722a3daafe3b4186f6b6457e060405160405180910390a360008060006101000a81548173ffffffffffffffffffffffffffffffffffffffff021916908373ffffffffffffffffffffffffffffffffffffffff160217905550565b6116856118d8565b6116f7576040517f08c379a00000000000000000000000000000000000000000000000000000000081526004018080602001828103825260208152602001807f4f776e61626c653a2063616c6c6572206973206e6f7420746865206f776e657281525060200191505060405180910390fd5b806003836040518082805190602001908083835b6020831061172e578051825260208201915060208101905060208303925061170b565b6001836020036101000a038019825116818451168082178552505050505050905001915050908152602001604051809103902060020160006101000a81548173ffffffffffffffffffffffffffffffffffffffff021916908373ffffffffffffffffffffffffffffffffffffffff1602179055507f4ce547b39bbb6232231e4c21c8264e0278a156e3437910296bdcf5a21f2fff3d82826040518080602001806020018473ffffffffffffffffffffffffffffffffffffffff1673ffffffffffffffffffffffffffffffffffffffff168152602001838103835285818151815260200191508051906020019080838360005b8381101561183b578082015181840152602081019050611820565b50505050905090810190601f1680156118685780820380516001836020036101000a031916815260200191505b50838103825260048152602001807f42414e4b0000000000000000000000000000000000000000000000000000000081525060200194505050505060405180910390a15050565b60008060009054906101000a900473ffffffffffffffffffffffffffffffffffffffff16905090565b60008060009054906101000a900473ffffffffffffffffffffffffffffffffffffffff1673ffffffffffffffffffffffffffffffffffffffff1661191a612819565b73ffffffffffffffffffffffffffffffffffffffff1614905090565b60006119406118d8565b6119b2576040517f08c379a00000000000000000000000000000000000000000000000000000000081526004018080602001828103825260208152602001807f4f776e61626c653a2063616c6c6572206973206e6f7420746865206f776e657281525060200191505060405180910390fd5b600115156003836040518082805190602001908083835b602083106119ec57805182526020820191506020810190506020830392506119c9565b6001836020036101000a038019825116818451168082178552505050505050905001915050908152602001604051809103902060030160149054906101000a900460ff16151514611aa5576040517f08c379a00000000000000000000000000000000000000000000000000000000081526004018080602001828103825260128152602001807f636f696e206e6f7420737570706f72746564000000000000000000000000000081525060200191505060405180910390fd5b6003826040518082805190602001908083835b60208310611adb5780518252602082019150602081019050602083039250611ab8565b6001836020036101000a038019825116818451168082178552505050505050905001915050908152602001604051809103902060020160009054906101000a900473ffffffffffffffffffffffffffffffffffffffff169050919050565b600115156003836040518082805190602001908083835b60208310611b735780518252602082019150602081019050602083039250611b50565b6001836020036101000a038019825116818451168082178552505050505050905001915050908152602001604051809103902060030160149054906101000a900460ff16151514611c2c576040517f08c379a00000000000000000000000000000000000000000000000000000000081526004018080602001828103825260128152602001807f636f696e206e6f7420737570706f72746564000000000000000000000000000081525060200191505060405180910390fd5b611c358261280e565b8102471015611cac576040517f08c379a000000000000000000000000000000000000000000000000000000000815260040180806020018281038252601a8152602001807f636f6e7472616374206861736e277420656e6f7567682045544800000000000081525060200191505060405180910390fd5b6003826040518082805190602001908083835b60208310611ce25780518252602082019150602081019050602083039250611cbf565b6001836020036101000a038019825116818451168082178552505050505050905001915050908152602001604051809103902060010160009054906101000a900473ffffffffffffffffffffffffffffffffffffffff16600160006101000a81548173ffffffffffffffffffffffffffffffffffffffff021916908373ffffffffffffffffffffffffffffffffffffffff1602179055506000600160009054906101000a900473ffffffffffffffffffffffffffffffffffffffff1673ffffffffffffffffffffffffffffffffffffffff166323b872dd3330856040518463ffffffff1660e01b8152600401808473ffffffffffffffffffffffffffffffffffffffff1673ffffffffffffffffffffffffffffffffffffffff1681526020018373ffffffffffffffffffffffffffffffffffffffff1673ffffffffffffffffffffffffffffffffffffffff1681526020018281526020019350505050602060405180830381600087803b158015611e5857600080fd5b505af1158015611e6c573d6000803e3d6000fd5b505050506040513d6020811015611e8257600080fd5b810190808051906020019092919050505090506001151581151514611f0f576040517f08c379a00000000000000000000000000000000000000000000000000000000081526004018080602001828103825260158152602001807f746f6b656e207472616e73666572206661696c6564000000000000000000000081525060200191505060405180910390fd5b6000611f1a8461280e565b830290503373ffffffffffffffffffffffffffffffffffffffff166108fc60025483039081150290604051600060405180830381858888f19350505050158015611f68573d6000803e3d6000fd5b507f28cab0d660ed8aedd61a8c9db00b97f6a2d67e07d87795994f440b18bc5f1aa3338483604051808473ffffffffffffffffffffffffffffffffffffffff1673ffffffffffffffffffffffffffffffffffffffff168152602001838152602001828152602001935050505060405180910390a150505050565b600047905090565b6000600254905090565b565b611ffe6118d8565b612070576040517f08c379a00000000000000000000000000000000000000000000000000000000081526004018080602001828103825260208152602001807f4f776e61626c653a2063616c6c6572206973206e6f7420746865206f776e657281525060200191505060405180910390fd5b806003836040518082805190602001908083835b602083106120a75780518252602082019150602081019050602083039250612084565b6001836020036101000a038019825116818451168082178552505050505050905001915050908152602001604051809103902060030160006101000a81548173ffffffffffffffffffffffffffffffffffffffff021916908373ffffffffffffffffffffffffffffffffffffffff1602179055507f4ce547b39bbb6232231e4c21c8264e0278a156e3437910296bdcf5a21f2fff3d82826040518080602001806020018473ffffffffffffffffffffffffffffffffffffffff1673ffffffffffffffffffffffffffffffffffffffff168152602001838103835285818151815260200191508051906020019080838360005b838110156121b4578082015181840152602081019050612199565b50505050905090810190601f1680156121e15780820380516001836020036101000a031916815260200191505b50838103825260038152602001807f504159000000000000000000000000000000000000000000000000000000000081525060200194505050505060405180910390a15050565b60006122326118d8565b6122a4576040517f08c379a00000000000000000000000000000000000000000000000000000000081526004018080602001828103825260208152602001807f4f776e61626c653a2063616c6c6572206973206e6f7420746865206f776e657281525060200191505060405180910390fd5b600115156003836040518082805190602001908083835b602083106122de57805182526020820191506020810190506020830392506122bb565b6001836020036101000a038019825116818451168082178552505050505050905001915050908152602001604051809103902060030160149054906101000a900460ff16151514612397576040517f08c379a00000000000000000000000000000000000000000000000000000000081526004018080602001828103825260128152602001807f636f696e206e6f7420737570706f72746564000000000000000000000000000081525060200191505060405180910390fd5b6003826040518082805190602001908083835b602083106123cd57805182526020820191506020810190506020830392506123aa565b6001836020036101000a038019825116818451168082178552505050505050905001915050908152602001604051809103902060030160009054906101000a900473ffffffffffffffffffffffffffffffffffffffff169050919050565b6124336118d8565b6124a5576040517f08c379a00000000000000000000000000000000000000000000000000000000081526004018080602001828103825260208152602001807f4f776e61626c653a2063616c6c6572206973206e6f7420746865206f776e657281525060200191505060405180910390fd5b600015156003856040518082805190602001908083835b602083106124df57805182526020820191506020810190506020830392506124bc565b6001836020036101000a038019825116818451168082178552505050505050905001915050908152602001604051809103902060030160149054906101000a900460ff16151514612598576040517f08c379a00000000000000000000000000000000000000000000000000000000081526004018080602001828103825260168152602001807f636f696e20616c726561647920737570706f727465640000000000000000000081525060200191505060405180910390fd5b6040518060a001604052808581526020018473ffffffffffffffffffffffffffffffffffffffff1681526020018373ffffffffffffffffffffffffffffffffffffffff1681526020018273ffffffffffffffffffffffffffffffffffffffff168152602001600115158152506003856040518082805190602001908083835b6020831061263a5780518252602082019150602081019050602083039250612617565b6001836020036101000a03801982511681845116808217855250505050505090500191505090815260200160405180910390206000820151816000019080519060200190612689929190612965565b5060208201518160010160006101000a81548173ffffffffffffffffffffffffffffffffffffffff021916908373ffffffffffffffffffffffffffffffffffffffff16021790555060408201518160020160006101000a81548173ffffffffffffffffffffffffffffffffffffffff021916908373ffffffffffffffffffffffffffffffffffffffff16021790555060608201518160030160006101000a81548173ffffffffffffffffffffffffffffffffffffffff021916908373ffffffffffffffffffffffffffffffffffffffff16021790555060808201518160030160146101000a81548160ff02191690831515021790555090505050505050565b6127906118d8565b612802576040517f08c379a00000000000000000000000000000000000000000000000000000000081526004018080602001828103825260208152602001807f4f776e61626c653a2063616c6c6572206973206e6f7420746865206f776e657281525060200191505060405180910390fd5b61280b81612821565b50565b600060649050919050565b600033905090565b600073ffffffffffffffffffffffffffffffffffffffff168173ffffffffffffffffffffffffffffffffffffffff1614156128a7576040517f08c379a0000000000000000000000000000000000000000000000000000000008152600401808060200182810382526026815260200180612a0b6026913960400191505060405180910390fd5b8073ffffffffffffffffffffffffffffffffffffffff166000809054906101000a900473ffffffffffffffffffffffffffffffffffffffff1673ffffffffffffffffffffffffffffffffffffffff167f8be0079c531659141344cd1fd0a4f28419497f9722a3daafe3b4186f6b6457e060405160405180910390a3806000806101000a81548173ffffffffffffffffffffffffffffffffffffffff021916908373ffffffffffffffffffffffffffffffffffffffff16021790555050565b828054600181600116156101000203166002900490600052602060002090601f016020900481019282601f106129a657805160ff19168380011785556129d4565b828001600101855582156129d4579182015b828111156129d35782518255916020019190600101906129b8565b5b5090506129e191906129e5565b5090565b612a0791905b80821115612a035760008160009055506001016129eb565b5090565b9056fe4f776e61626c653a206e6577206f776e657220697320746865207a65726f2061646472657373a2646970667358221220749efbcdc78ceb16036921bd6a1b8ea44fd82b1c26d0ebdaceb789b4a26e938164736f6c63430006000033",
  "source": "pragma solidity ^0.6.0;\r\n\r\n//import \"https://github.com/OpenZeppelin/openzeppelin-contracts/blob/master/contracts/ownership/Ownable.sol\";\r\nimport \"../lib/openzeppelin/contracts/ownership/Ownable.sol\";\r\n\r\ncontract ERC20 {\r\n\r\n    function totalSupply() public view returns (uint) {}\r\n    function balanceOf(address tokenOwner) public view returns (uint balance) {}\r\n    function allowance(address tokenOwner, address spender) public view returns (uint remaining){}\r\n    function transfer(address to, uint tokens) public returns (bool success) {}\r\n    function approve(address spender, uint tokens) public returns (bool success) {}\r\n    function transferFrom(address from, address to, uint tokens) public returns (bool success) {}\r\n\r\n}\r\n\r\n\r\ncontract FakeExchange is Ownable {\r\n    \r\n    ERC20 stub;\r\n    uint fee;\r\n\r\n    event TokenSold(address customer,uint qty,uint price);\r\n    event TokenBought(address seller, uint qty, uint price);\r\n    event TokenAddressChanged(string tokenID, string addressType, address newAddress);\r\n    event TokenDeleted(string tokenID);\r\n    event FeeChanged(uint newValue);\r\n    \r\n    constructor () public {\r\n        fee = 100;\r\n        emit FeeChanged(100);\r\n    }\r\n    \r\n    struct Token {\r\n        string id;\r\n        address tokenAddress;\r\n        address bankAddress;\r\n        address payable payAddress;\r\n        bool supported;\r\n    }\r\n\r\n    mapping(string => Token) supportedCoins;\r\n\r\n    function addToken(string memory id,address tokenAddr,address bankAddr,address payable payAddr) onlyOwner public {\r\n        require(supportedCoins[id].supported == false, \"coin already supported\");\r\n        supportedCoins[id] = Token(id,tokenAddr,bankAddr,payAddr,true);\r\n    }\r\n    \r\n    function removeToken(string memory id) public onlyOwner {\r\n        supportedCoins[id].supported = false;\r\n        emit TokenDeleted(id);\r\n    }\r\n    \r\n    function setBankAddr(string memory id,address bankAddr) public onlyOwner {\r\n        supportedCoins[id].bankAddress = bankAddr;\r\n        emit TokenAddressChanged(id, \"BANK\", bankAddr);\r\n    }\r\n    \r\n    function setPayAddr(string memory id,address payable payAddr) public onlyOwner {\r\n        supportedCoins[id].payAddress = payAddr;\r\n        emit TokenAddressChanged(id, \"PAY\", payAddr);\r\n    }\r\n    \r\n    function getPayAddr(string memory id) public view onlyOwner returns (address) {\r\n        require(supportedCoins[id].supported == true, \"coin not supported\");\r\n        return supportedCoins[id].payAddress;\r\n    }\r\n    \r\n    function getBankAddr(string memory id) public view onlyOwner returns (address) {\r\n        require(supportedCoins[id].supported == true, \"coin not supported\");\r\n        return supportedCoins[id].bankAddress;\r\n    }\r\n    \r\n    function getTokenAddr(string memory id) public view returns (address) {\r\n        require(supportedCoins[id].supported == true, \"coin not supported\");\r\n        return supportedCoins[id].tokenAddress;\r\n    }\r\n    \r\n    function setFee(uint newFee) public onlyOwner {\r\n        fee = newFee;\r\n        emit FeeChanged(newFee);\r\n    }\r\n    \r\n    function getFee() public view returns (uint) {\r\n        return fee;\r\n    }\r\n    \r\n    function getPrice(string memory id) pure internal returns(uint256){\r\n        return 100;\r\n    }\r\n\r\n    function buy(string memory id, uint qty) payable public {\r\n        require(supportedCoins[id].supported == true, \"coin not supported\"); //check if this coin is supported\r\n        require(msg.value >= qty * getPrice(id), \"not enough ETH supplied\"); //check if supplied ETH is enough\r\n        stub = ERC20(supportedCoins[id].tokenAddress);\r\n        bool result = stub.transferFrom(supportedCoins[id].bankAddress,msg.sender,qty);\r\n        require(result == true); //check that token transfer has been successful\r\n        supportedCoins[id].payAddress.transfer(msg.value - fee); //pay token contract and get fee\r\n        emit TokenSold(msg.sender,qty,msg.value);\r\n    }\r\n\r\n    function sell(string memory id, uint qty) public {\r\n        require(supportedCoins[id].supported == true, \"coin not supported\"); //check if this coin is supported\r\n        require(address(this).balance >= qty * getPrice(id),\"contract hasn't enough ETH\"); //check if this contract has enough ETH to buy\r\n        stub = ERC20(supportedCoins[id].tokenAddress);\r\n        bool result = stub.transferFrom(msg.sender,address(this),qty);\r\n        require(result == true, \"token transfer failed\"); //check that token transfer has been successful\r\n        uint price = qty * getPrice(id);\r\n        msg.sender.transfer(price - fee); //pay seller\r\n        emit TokenBought(msg.sender,qty,price);\r\n    }\r\n    \r\n    function balance() public view returns (uint){\r\n        return address(this).balance;\r\n    }\r\n    \r\n    function deposit() public payable {\r\n    }\r\n    \r\n    function withdraw(uint256 amount) external onlyOwner {\r\n        require(amount <= address(this).balance);\r\n        msg.sender.transfer(amount);\r\n    } \r\n    \r\n    receive() external payable {}\r\n    \r\n    fallback() external payable {}\r\n\r\n\r\n}\r\n",
  "sourcePath": "C:/Users/paulon/Desktop/WebApps/Ethereum/git/FakeExchange/contracts/FakeExchange.sol",
  "compiler": {
    "name": "solc",
    "version": "0.6.0+commit.26b70077.Emscripten.clang"
  },
  "schemaVersion": "3.0.20",
  "updatedAt": "2020-02-26T13:48:57.374Z",
  "networkType": "ethereum",
  "devdoc": {
    "methods": {
      "isOwner()": {
        "details": "Returns true if the caller is the current owner."
      },
      "owner()": {
        "details": "Returns the address of the current owner."
      },
      "renounceOwnership()": {
        "details": "Leaves the contract without owner. It will not be possible to call `onlyOwner` functions anymore. Can only be called by the current owner.      * NOTE: Renouncing ownership will leave the contract without an owner, thereby removing any functionality that is only available to the owner."
      },
      "transferOwnership(address)": {
        "details": "Transfers ownership of the contract to a new account (`newOwner`). Can only be called by the current owner."
      }
    }
  },
  "userdoc": {
    "methods": {}
  }
}