{
  "contractName": "FakeExchange",
  "abi": [
    {
      "inputs": [],
      "stateMutability": "nonpayable",
      "type": "constructor"
    },
    {
      "anonymous": false,
      "inputs": [
        {
          "indexed": false,
          "internalType": "uint256",
          "name": "newValue",
          "type": "uint256"
        }
      ],
      "name": "FeeChanged",
      "type": "event"
    },
    {
      "anonymous": false,
      "inputs": [
        {
          "indexed": true,
          "internalType": "address",
          "name": "previousOwner",
          "type": "address"
        },
        {
          "indexed": true,
          "internalType": "address",
          "name": "newOwner",
          "type": "address"
        }
      ],
      "name": "OwnershipTransferred",
      "type": "event"
    },
    {
      "anonymous": false,
      "inputs": [
        {
          "indexed": false,
          "internalType": "string",
          "name": "tokenID",
          "type": "string"
        },
        {
          "indexed": false,
          "internalType": "string",
          "name": "addressType",
          "type": "string"
        },
        {
          "indexed": false,
          "internalType": "address",
          "name": "newAddress",
          "type": "address"
        }
      ],
      "name": "TokenAddressChanged",
      "type": "event"
    },
    {
      "anonymous": false,
      "inputs": [
        {
          "indexed": false,
          "internalType": "address",
          "name": "seller",
          "type": "address"
        },
        {
          "indexed": false,
          "internalType": "uint256",
          "name": "qty",
          "type": "uint256"
        },
        {
          "indexed": false,
          "internalType": "uint256",
          "name": "price",
          "type": "uint256"
        }
      ],
      "name": "TokenBought",
      "type": "event"
    },
    {
      "anonymous": false,
      "inputs": [
        {
          "indexed": false,
          "internalType": "string",
          "name": "tokenID",
          "type": "string"
        }
      ],
      "name": "TokenDeleted",
      "type": "event"
    },
    {
      "anonymous": false,
      "inputs": [
        {
          "indexed": false,
          "internalType": "address",
          "name": "customer",
          "type": "address"
        },
        {
          "indexed": false,
          "internalType": "uint256",
          "name": "qty",
          "type": "uint256"
        },
        {
          "indexed": false,
          "internalType": "uint256",
          "name": "price",
          "type": "uint256"
        }
      ],
      "name": "TokenSold",
      "type": "event"
    },
    {
      "stateMutability": "payable",
      "type": "fallback",
      "payable": true
    },
    {
      "inputs": [],
      "name": "isOwner",
      "outputs": [
        {
          "internalType": "bool",
          "name": "",
          "type": "bool"
        }
      ],
      "stateMutability": "view",
      "type": "function",
      "constant": true
    },
    {
      "inputs": [],
      "name": "owner",
      "outputs": [
        {
          "internalType": "address",
          "name": "",
          "type": "address"
        }
      ],
      "stateMutability": "view",
      "type": "function",
      "constant": true
    },
    {
      "inputs": [],
      "name": "renounceOwnership",
      "outputs": [],
      "stateMutability": "nonpayable",
      "type": "function"
    },
    {
      "inputs": [
        {
          "internalType": "address",
          "name": "newOwner",
          "type": "address"
        }
      ],
      "name": "transferOwnership",
      "outputs": [],
      "stateMutability": "nonpayable",
      "type": "function"
    },
    {
      "stateMutability": "payable",
      "type": "receive",
      "payable": true
    },
    {
      "inputs": [
        {
          "internalType": "string",
          "name": "id",
          "type": "string"
        },
        {
          "internalType": "address",
          "name": "tokenAddr",
          "type": "address"
        },
        {
          "internalType": "address",
          "name": "bankAddr",
          "type": "address"
        },
        {
          "internalType": "address payable",
          "name": "payAddr",
          "type": "address"
        }
      ],
      "name": "addToken",
      "outputs": [],
      "stateMutability": "nonpayable",
      "type": "function"
    },
    {
      "inputs": [
        {
          "internalType": "string",
          "name": "id",
          "type": "string"
        }
      ],
      "name": "removeToken",
      "outputs": [],
      "stateMutability": "nonpayable",
      "type": "function"
    },
    {
      "inputs": [
        {
          "internalType": "string",
          "name": "id",
          "type": "string"
        },
        {
          "internalType": "address",
          "name": "bankAddr",
          "type": "address"
        }
      ],
      "name": "setBankAddr",
      "outputs": [],
      "stateMutability": "nonpayable",
      "type": "function"
    },
    {
      "inputs": [
        {
          "internalType": "string",
          "name": "id",
          "type": "string"
        },
        {
          "internalType": "address payable",
          "name": "payAddr",
          "type": "address"
        }
      ],
      "name": "setPayAddr",
      "outputs": [],
      "stateMutability": "nonpayable",
      "type": "function"
    },
    {
      "inputs": [
        {
          "internalType": "uint256",
          "name": "newFee",
          "type": "uint256"
        }
      ],
      "name": "setFee",
      "outputs": [],
      "stateMutability": "nonpayable",
      "type": "function"
    },
    {
      "inputs": [],
      "name": "getFee",
      "outputs": [
        {
          "internalType": "uint256",
          "name": "",
          "type": "uint256"
        }
      ],
      "stateMutability": "view",
      "type": "function",
      "constant": true
    },
    {
      "inputs": [
        {
          "internalType": "string",
          "name": "id",
          "type": "string"
        },
        {
          "internalType": "uint256",
          "name": "qty",
          "type": "uint256"
        }
      ],
      "name": "buy",
      "outputs": [],
      "stateMutability": "payable",
      "type": "function",
      "payable": true
    },
    {
      "inputs": [
        {
          "internalType": "string",
          "name": "id",
          "type": "string"
        },
        {
          "internalType": "uint256",
          "name": "qty",
          "type": "uint256"
        }
      ],
      "name": "sell",
      "outputs": [],
      "stateMutability": "nonpayable",
      "type": "function"
    },
    {
      "inputs": [],
      "name": "balance",
      "outputs": [
        {
          "internalType": "uint256",
          "name": "",
          "type": "uint256"
        }
      ],
      "stateMutability": "view",
      "type": "function",
      "constant": true
    }
  ],
  "bytecode": "0x608060405234801561001057600080fd5b50600061002161010460201b60201c565b9050806000806101000a81548173ffffffffffffffffffffffffffffffffffffffff021916908373ffffffffffffffffffffffffffffffffffffffff1602179055508073ffffffffffffffffffffffffffffffffffffffff16600073ffffffffffffffffffffffffffffffffffffffff167f8be0079c531659141344cd1fd0a4f28419497f9722a3daafe3b4186f6b6457e060405160405180910390a35060646002819055507f6bbc57480a46553fa4d156ce702beef5f3ad66303b0ed1a5d4cb44966c6584c360646040518082815260200191505060405180910390a161010c565b600033905090565b6120088061011b6000396000f3fe6080604052600436106100c65760003560e01c80638f32d59b1161007f578063ced72f8711610059578063ced72f8714610519578063ddde391b14610544578063ebd516d51461062c578063f2fde38b14610754576100cd565b80638f32d59b146103ed5780639f6563211461041c578063b69ef8a8146104ee576100cd565b80630ca5c504146100cf5780631f4559221461019457806369fe0e2d1461025c578063715018a6146102975780638b77c842146102ae5780638da5cb5b14610396576100cd565b366100cd57005b005b610192600480360360408110156100e557600080fd5b810190808035906020019064010000000081111561010257600080fd5b82018360208201111561011457600080fd5b8035906020019184600183028401116401000000008311171561013657600080fd5b91908080601f016020809104026020016040519081016040528093929190818152602001838380828437600081840152601f19601f820116905080830192505050505050509192919290803590602001909291905050506107a5565b005b3480156101a057600080fd5b5061025a600480360360208110156101b757600080fd5b81019080803590602001906401000000008111156101d457600080fd5b8201836020820111156101e657600080fd5b8035906020019184600183028401116401000000008311171561020857600080fd5b91908080601f016020809104026020016040519081016040528093929190818152602001838380828437600081840152601f19601f820116905080830192505050505050509192919290505050610ced565b005b34801561026857600080fd5b506102956004803603602081101561027f57600080fd5b8101908080359060200190929190505050610e8b565b005b3480156102a357600080fd5b506102ac610f46565b005b3480156102ba57600080fd5b50610394600480360360408110156102d157600080fd5b81019080803590602001906401000000008111156102ee57600080fd5b82018360208201111561030057600080fd5b8035906020019184600183028401116401000000008311171561032257600080fd5b91908080601f016020809104026020016040519081016040528093929190818152602001838380828437600081840152601f19601f820116905080830192505050505050509192919290803573ffffffffffffffffffffffffffffffffffffffff16906020019092919050505061107f565b005b3480156103a257600080fd5b506103ab6112b1565b604051808273ffffffffffffffffffffffffffffffffffffffff1673ffffffffffffffffffffffffffffffffffffffff16815260200191505060405180910390f35b3480156103f957600080fd5b506104026112da565b604051808215151515815260200191505060405180910390f35b34801561042857600080fd5b506104ec6004803603604081101561043f57600080fd5b810190808035906020019064010000000081111561045c57600080fd5b82018360208201111561046e57600080fd5b8035906020019184600183028401116401000000008311171561049057600080fd5b91908080601f016020809104026020016040519081016040528093929190818152602001838380828437600081840152601f19601f82011690508083019250505050505050919291929080359060200190929190505050611338565b005b3480156104fa57600080fd5b5061050361170f565b6040518082815260200191505060405180910390f35b34801561052557600080fd5b5061052e611791565b6040518082815260200191505060405180910390f35b34801561055057600080fd5b5061062a6004803603604081101561056757600080fd5b810190808035906020019064010000000081111561058457600080fd5b82018360208201111561059657600080fd5b803590602001918460018302840111640100000000831117156105b857600080fd5b91908080601f016020809104026020016040519081016040528093929190818152602001838380828437600081840152601f19601f820116905080830192505050505050509192919290803573ffffffffffffffffffffffffffffffffffffffff16906020019092919050505061179b565b005b34801561063857600080fd5b506107526004803603608081101561064f57600080fd5b810190808035906020019064010000000081111561066c57600080fd5b82018360208201111561067e57600080fd5b803590602001918460018302840111640100000000831117156106a057600080fd5b91908080601f016020809104026020016040519081016040528093929190818152602001838380828437600081840152601f19601f820116905080830192505050505050509192919290803573ffffffffffffffffffffffffffffffffffffffff169060200190929190803573ffffffffffffffffffffffffffffffffffffffff169060200190929190803573ffffffffffffffffffffffffffffffffffffffff1690602001909291905050506119cd565b005b34801561076057600080fd5b506107a36004803603602081101561077757600080fd5b81019080803573ffffffffffffffffffffffffffffffffffffffff169060200190929190505050611d2a565b005b600115156003836040518082805190602001908083835b602083106107df57805182526020820191506020810190506020830392506107bc565b6001836020036101000a038019825116818451168082178552505050505050905001915050908152602001604051809103902060030160149054906101000a900460ff16151514610898576040517f08c379a00000000000000000000000000000000000000000000000000000000081526004018080602001828103825260128152602001807f636f696e206e6f7420737570706f72746564000000000000000000000000000081525060200191505060405180910390fd5b6108a182611db0565b8102341015610918576040517f08c379a00000000000000000000000000000000000000000000000000000000081526004018080602001828103825260178152602001807f6e6f7420656e6f7567682045544820737570706c69656400000000000000000081525060200191505060405180910390fd5b6003826040518082805190602001908083835b6020831061094e578051825260208201915060208101905060208303925061092b565b6001836020036101000a038019825116818451168082178552505050505050905001915050908152602001604051809103902060010160009054906101000a900473ffffffffffffffffffffffffffffffffffffffff16600160006101000a81548173ffffffffffffffffffffffffffffffffffffffff021916908373ffffffffffffffffffffffffffffffffffffffff1602179055506000600160009054906101000a900473ffffffffffffffffffffffffffffffffffffffff1673ffffffffffffffffffffffffffffffffffffffff166323b872dd6003856040518082805190602001908083835b60208310610a5b5780518252602082019150602081019050602083039250610a38565b6001836020036101000a038019825116818451168082178552505050505050905001915050908152602001604051809103902060020160009054906101000a900473ffffffffffffffffffffffffffffffffffffffff1633856040518463ffffffff1660e01b8152600401808473ffffffffffffffffffffffffffffffffffffffff1673ffffffffffffffffffffffffffffffffffffffff1681526020018373ffffffffffffffffffffffffffffffffffffffff1673ffffffffffffffffffffffffffffffffffffffff1681526020018281526020019350505050602060405180830381600087803b158015610b5057600080fd5b505af1158015610b64573d6000803e3d6000fd5b505050506040513d6020811015610b7a57600080fd5b810190808051906020019092919050505090506001151581151514610b9e57600080fd5b6003836040518082805190602001908083835b60208310610bd45780518252602082019150602081019050602083039250610bb1565b6001836020036101000a038019825116818451168082178552505050505050905001915050908152602001604051809103902060030160009054906101000a900473ffffffffffffffffffffffffffffffffffffffff1673ffffffffffffffffffffffffffffffffffffffff166108fc60025434039081150290604051600060405180830381858888f19350505050158015610c74573d6000803e3d6000fd5b507f35ea94addbc62df281ade49cc2ad9b3d9259166170cf702928b4ddc045f7256e338334604051808473ffffffffffffffffffffffffffffffffffffffff1673ffffffffffffffffffffffffffffffffffffffff168152602001838152602001828152602001935050505060405180910390a1505050565b610cf56112da565b610d67576040517f08c379a00000000000000000000000000000000000000000000000000000000081526004018080602001828103825260208152602001807f4f776e61626c653a2063616c6c6572206973206e6f7420746865206f776e657281525060200191505060405180910390fd5b60006003826040518082805190602001908083835b60208310610d9f5780518252602082019150602081019050602083039250610d7c565b6001836020036101000a038019825116818451168082178552505050505050905001915050908152602001604051809103902060030160146101000a81548160ff0219169083151502179055507f333d2d52673c7776c91aa283963900bd158cff90530c243e2e6f76c2ffa305d3816040518080602001828103825283818151815260200191508051906020019080838360005b83811015610e4e578082015181840152602081019050610e33565b50505050905090810190601f168015610e7b5780820380516001836020036101000a031916815260200191505b509250505060405180910390a150565b610e936112da565b610f05576040517f08c379a00000000000000000000000000000000000000000000000000000000081526004018080602001828103825260208152602001807f4f776e61626c653a2063616c6c6572206973206e6f7420746865206f776e657281525060200191505060405180910390fd5b806002819055507f6bbc57480a46553fa4d156ce702beef5f3ad66303b0ed1a5d4cb44966c6584c3816040518082815260200191505060405180910390a150565b610f4e6112da565b610fc0576040517f08c379a00000000000000000000000000000000000000000000000000000000081526004018080602001828103825260208152602001807f4f776e61626c653a2063616c6c6572206973206e6f7420746865206f776e657281525060200191505060405180910390fd5b600073ffffffffffffffffffffffffffffffffffffffff166000809054906101000a900473ffffffffffffffffffffffffffffffffffffffff1673ffffffffffffffffffffffffffffffffffffffff167f8be0079c531659141344cd1fd0a4f28419497f9722a3daafe3b4186f6b6457e060405160405180910390a360008060006101000a81548173ffffffffffffffffffffffffffffffffffffffff021916908373ffffffffffffffffffffffffffffffffffffffff160217905550565b6110876112da565b6110f9576040517f08c379a00000000000000000000000000000000000000000000000000000000081526004018080602001828103825260208152602001807f4f776e61626c653a2063616c6c6572206973206e6f7420746865206f776e657281525060200191505060405180910390fd5b806003836040518082805190602001908083835b60208310611130578051825260208201915060208101905060208303925061110d565b6001836020036101000a038019825116818451168082178552505050505050905001915050908152602001604051809103902060020160006101000a81548173ffffffffffffffffffffffffffffffffffffffff021916908373ffffffffffffffffffffffffffffffffffffffff1602179055507f4ce547b39bbb6232231e4c21c8264e0278a156e3437910296bdcf5a21f2fff3d82826040518080602001806020018473ffffffffffffffffffffffffffffffffffffffff1673ffffffffffffffffffffffffffffffffffffffff168152602001838103835285818151815260200191508051906020019080838360005b8381101561123d578082015181840152602081019050611222565b50505050905090810190601f16801561126a5780820380516001836020036101000a031916815260200191505b50838103825260048152602001807f42414e4b0000000000000000000000000000000000000000000000000000000081525060200194505050505060405180910390a15050565b60008060009054906101000a900473ffffffffffffffffffffffffffffffffffffffff16905090565b60008060009054906101000a900473ffffffffffffffffffffffffffffffffffffffff1673ffffffffffffffffffffffffffffffffffffffff1661131c611dbb565b73ffffffffffffffffffffffffffffffffffffffff1614905090565b600115156003836040518082805190602001908083835b60208310611372578051825260208201915060208101905060208303925061134f565b6001836020036101000a038019825116818451168082178552505050505050905001915050908152602001604051809103902060030160149054906101000a900460ff1615151461142b576040517f08c379a00000000000000000000000000000000000000000000000000000000081526004018080602001828103825260128152602001807f636f696e206e6f7420737570706f72746564000000000000000000000000000081525060200191505060405180910390fd5b61143482611db0565b810247101561144257600080fd5b6003826040518082805190602001908083835b602083106114785780518252602082019150602081019050602083039250611455565b6001836020036101000a038019825116818451168082178552505050505050905001915050908152602001604051809103902060010160009054906101000a900473ffffffffffffffffffffffffffffffffffffffff16600160006101000a81548173ffffffffffffffffffffffffffffffffffffffff021916908373ffffffffffffffffffffffffffffffffffffffff1602179055506000600160009054906101000a900473ffffffffffffffffffffffffffffffffffffffff1673ffffffffffffffffffffffffffffffffffffffff166323b872dd3330856040518463ffffffff1660e01b8152600401808473ffffffffffffffffffffffffffffffffffffffff1673ffffffffffffffffffffffffffffffffffffffff1681526020018373ffffffffffffffffffffffffffffffffffffffff1673ffffffffffffffffffffffffffffffffffffffff1681526020018281526020019350505050602060405180830381600087803b1580156115ee57600080fd5b505af1158015611602573d6000803e3d6000fd5b505050506040513d602081101561161857600080fd5b81019080805190602001909291905050509050600115158115151461163c57600080fd5b600061164784611db0565b830290503373ffffffffffffffffffffffffffffffffffffffff166108fc60025483039081150290604051600060405180830381858888f19350505050158015611695573d6000803e3d6000fd5b507f28cab0d660ed8aedd61a8c9db00b97f6a2d67e07d87795994f440b18bc5f1aa3338483604051808473ffffffffffffffffffffffffffffffffffffffff1673ffffffffffffffffffffffffffffffffffffffff168152602001838152602001828152602001935050505060405180910390a150505050565b60006117196112da565b61178b576040517f08c379a00000000000000000000000000000000000000000000000000000000081526004018080602001828103825260208152602001807f4f776e61626c653a2063616c6c6572206973206e6f7420746865206f776e657281525060200191505060405180910390fd5b47905090565b6000600254905090565b6117a36112da565b611815576040517f08c379a00000000000000000000000000000000000000000000000000000000081526004018080602001828103825260208152602001807f4f776e61626c653a2063616c6c6572206973206e6f7420746865206f776e657281525060200191505060405180910390fd5b806003836040518082805190602001908083835b6020831061184c5780518252602082019150602081019050602083039250611829565b6001836020036101000a038019825116818451168082178552505050505050905001915050908152602001604051809103902060030160006101000a81548173ffffffffffffffffffffffffffffffffffffffff021916908373ffffffffffffffffffffffffffffffffffffffff1602179055507f4ce547b39bbb6232231e4c21c8264e0278a156e3437910296bdcf5a21f2fff3d82826040518080602001806020018473ffffffffffffffffffffffffffffffffffffffff1673ffffffffffffffffffffffffffffffffffffffff168152602001838103835285818151815260200191508051906020019080838360005b8381101561195957808201518184015260208101905061193e565b50505050905090810190601f1680156119865780820380516001836020036101000a031916815260200191505b50838103825260038152602001807f504159000000000000000000000000000000000000000000000000000000000081525060200194505050505060405180910390a15050565b6119d56112da565b611a47576040517f08c379a00000000000000000000000000000000000000000000000000000000081526004018080602001828103825260208152602001807f4f776e61626c653a2063616c6c6572206973206e6f7420746865206f776e657281525060200191505060405180910390fd5b600015156003856040518082805190602001908083835b60208310611a815780518252602082019150602081019050602083039250611a5e565b6001836020036101000a038019825116818451168082178552505050505050905001915050908152602001604051809103902060030160149054906101000a900460ff16151514611b3a576040517f08c379a00000000000000000000000000000000000000000000000000000000081526004018080602001828103825260168152602001807f636f696e20616c726561647920737570706f727465640000000000000000000081525060200191505060405180910390fd5b6040518060a001604052808581526020018473ffffffffffffffffffffffffffffffffffffffff1681526020018373ffffffffffffffffffffffffffffffffffffffff1681526020018273ffffffffffffffffffffffffffffffffffffffff168152602001600115158152506003856040518082805190602001908083835b60208310611bdc5780518252602082019150602081019050602083039250611bb9565b6001836020036101000a03801982511681845116808217855250505050505090500191505090815260200160405180910390206000820151816000019080519060200190611c2b929190611f07565b5060208201518160010160006101000a81548173ffffffffffffffffffffffffffffffffffffffff021916908373ffffffffffffffffffffffffffffffffffffffff16021790555060408201518160020160006101000a81548173ffffffffffffffffffffffffffffffffffffffff021916908373ffffffffffffffffffffffffffffffffffffffff16021790555060608201518160030160006101000a81548173ffffffffffffffffffffffffffffffffffffffff021916908373ffffffffffffffffffffffffffffffffffffffff16021790555060808201518160030160146101000a81548160ff02191690831515021790555090505050505050565b611d326112da565b611da4576040517f08c379a00000000000000000000000000000000000000000000000000000000081526004018080602001828103825260208152602001807f4f776e61626c653a2063616c6c6572206973206e6f7420746865206f776e657281525060200191505060405180910390fd5b611dad81611dc3565b50565b600060649050919050565b600033905090565b600073ffffffffffffffffffffffffffffffffffffffff168173ffffffffffffffffffffffffffffffffffffffff161415611e49576040517f08c379a0000000000000000000000000000000000000000000000000000000008152600401808060200182810382526026815260200180611fad6026913960400191505060405180910390fd5b8073ffffffffffffffffffffffffffffffffffffffff166000809054906101000a900473ffffffffffffffffffffffffffffffffffffffff1673ffffffffffffffffffffffffffffffffffffffff167f8be0079c531659141344cd1fd0a4f28419497f9722a3daafe3b4186f6b6457e060405160405180910390a3806000806101000a81548173ffffffffffffffffffffffffffffffffffffffff021916908373ffffffffffffffffffffffffffffffffffffffff16021790555050565b828054600181600116156101000203166002900490600052602060002090601f016020900481019282601f10611f4857805160ff1916838001178555611f76565b82800160010185558215611f76579182015b82811115611f75578251825591602001919060010190611f5a565b5b509050611f839190611f87565b5090565b611fa991905b80821115611fa5576000816000905550600101611f8d565b5090565b9056fe4f776e61626c653a206e6577206f776e657220697320746865207a65726f2061646472657373a2646970667358221220726d51969592de531df5c8faa9ce5667ab24eb817f506550a4aaaa72839c6c4964736f6c63430006000033",
  "source": "pragma solidity ^0.6.0;\n\n//import \"https://github.com/OpenZeppelin/openzeppelin-contracts/blob/master/contracts/ownership/Ownable.sol\";\nimport \"../lib/openzeppelin/contracts/ownership/Ownable.sol\";\n\ncontract ERC20 {\n\n    function totalSupply() public view returns (uint) {}\n    function balanceOf(address tokenOwner) public view returns (uint balance) {}\n    function allowance(address tokenOwner, address spender) public view returns (uint remaining){}\n    function transfer(address to, uint tokens) public returns (bool success) {}\n    function approve(address spender, uint tokens) public returns (bool success) {}\n    function transferFrom(address from, address to, uint tokens) public returns (bool success) {}\n\n}\n\n\ncontract FakeExchange is Ownable {\n    \n    ERC20 stub;\n    uint fee;\n\n    event TokenSold(address customer,uint qty,uint price);\n    event TokenBought(address seller, uint qty, uint price);\n    event TokenAddressChanged(string tokenID, string addressType, address newAddress);\n    event TokenDeleted(string tokenID);\n    event FeeChanged(uint newValue);\n    \n    constructor () public {\n        fee = 100;\n        emit FeeChanged(100);\n    }\n    \n    struct Token {\n        string id;\n        address tokenAddress;\n        address bankAddress;\n        address payable payAddress;\n        bool supported;\n    }\n\n    mapping(string => Token) supportedCoins;\n\n    function addToken(string memory id,address tokenAddr,address bankAddr,address payable payAddr) onlyOwner public {\n        require(supportedCoins[id].supported == false, \"coin already supported\");\n        supportedCoins[id] = Token(id,tokenAddr,bankAddr,payAddr,true);\n    }\n    \n    function removeToken(string memory id) public onlyOwner {\n        supportedCoins[id].supported = false;\n        emit TokenDeleted(id);\n    }\n    \n    function setBankAddr(string memory id,address bankAddr) public onlyOwner {\n        supportedCoins[id].bankAddress = bankAddr;\n        emit TokenAddressChanged(id, \"BANK\", bankAddr);\n    }\n    \n    function setPayAddr(string memory id,address payable payAddr) public onlyOwner {\n        supportedCoins[id].payAddress = payAddr;\n        emit TokenAddressChanged(id, \"PAY\", payAddr);\n    }\n    \n    function setFee(uint newFee) public onlyOwner {\n        fee = newFee;\n        emit FeeChanged(newFee);\n    }\n    \n    function getFee() public view returns (uint) {\n        return fee;\n    }\n    \n    function getPrice(string memory id) internal returns(uint256){\n        return 100;\n    }\n\n    function buy(string memory id, uint qty) payable public {\n        require(supportedCoins[id].supported == true, \"coin not supported\"); //check if this coin is supported\n        require(msg.value >= qty * getPrice(id), \"not enough ETH supplied\"); //check if supplied ETH is enough\n        stub = ERC20(supportedCoins[id].tokenAddress);\n        bool result = stub.transferFrom(supportedCoins[id].bankAddress,msg.sender,qty);\n        require(result == true); //check that token transfer has been successful\n        supportedCoins[id].payAddress.transfer(msg.value - fee); //pay token contract and get fee\n        emit TokenSold(msg.sender,qty,msg.value);\n    }\n\n    function sell(string memory id, uint qty) public {\n        require(supportedCoins[id].supported == true, \"coin not supported\"); //check if this coin is supported\n        require(address(this).balance >= qty * getPrice(id)); //check if this contract has enough ETH to buy\n        stub = ERC20(supportedCoins[id].tokenAddress);\n        bool result = stub.transferFrom(msg.sender,address(this),qty);\n        require(result == true); //check that token transfer has been successful\n        uint price = qty * getPrice(id);\n        msg.sender.transfer(price - fee); //pay seller\n        emit TokenBought(msg.sender,qty,price);\n    }\n    \n    function balance () public view onlyOwner returns (uint){\n        return address(this).balance;\n    }\n    \n    \n    receive() external payable {}\n    \n    fallback() external payable {}\n\n\n}\n",
  "sourcePath": "/Users/Tommaso/Desktop/FakeExchange/contracts/FakeExchange.sol",
  "compiler": {
    "name": "solc",
    "version": "0.6.0+commit.26b70077.Emscripten.clang"
  },
  "schemaVersion": "3.0.23",
  "updatedAt": "2020-02-23T10:29:24.028Z",
  "networkType": "ethereum",
  "devdoc": {
    "methods": {
      "isOwner()": {
        "details": "Returns true if the caller is the current owner."
      },
      "owner()": {
        "details": "Returns the address of the current owner."
      },
      "renounceOwnership()": {
        "details": "Leaves the contract without owner. It will not be possible to call `onlyOwner` functions anymore. Can only be called by the current owner.     * NOTE: Renouncing ownership will leave the contract without an owner, thereby removing any functionality that is only available to the owner."
      },
      "transferOwnership(address)": {
        "details": "Transfers ownership of the contract to a new account (`newOwner`). Can only be called by the current owner."
      }
    }
  },
  "userdoc": {
    "methods": {}
  }
}